:020000040800F2
:10000000280C0020B901000827310008812F0008C2
:1000100025310008351B0008ED39000800000000FC
:10002000000000000000000000000000473500084C
:10003000C11C0008000000004535000849350008D3
:10004000D3010008D3010008D3010008D301000840
:10005000D3010008D3010008D3010008D301000830
:10006000D3010008D3010008D3010008D301000820
:10007000D3010008D3010008D3010008D301000810
:10008000D3010008D3010008D3010008D301000800
:10009000D3010008D3010008D3010008D3010008F0
:1000A000D3010008D3010008D3010008D3010008E0
:1000B000D3010008D3010008D3010008D3010008D0
:1000C000D3010008D3010008D3010008D3010008C0
:1000D000D3010008D301000889390008D3010008C2
:1000E000D3010008D3010008D301000800F002F892
:1000F00000F053F80AA090E8000C82448344AAF16F
:100100000107DA4501D100F048F8AFF2090EBAE86C
:100110000F0013F0010F18BFFB1A43F0010318473B
:100120004865000068650000103A24BF78C878C1AF
:10013000FAD8520724BF30C830C144BF04680C60ED
:10014000704700000023002400250026103A28BF35
:1001500078C1FBD8520728BF30C148BF0B60704739
:10016000662904F09E82642900F06E80752900F0F3
:100170006B80002070471FB500F07CFD040000205C
:10018000002103F019FE401C60600020002103F0F4
:10019000FDFDE0601FBD10B510BD01F02DF811464A
:1001A000FFF7E9FF03F056FC01F054F803B4FFF742
:1001B000F2FF03BC01F058F809488047094800479E
:1001C000FEE7FEE7FEE7FEE7FEE7FEE7FEE7FEE707
:1001D000FEE7FEE704480549054A064B7047000064
:1001E000C5350008ED00000828060020280C002076
:1001F0002808002028080020B2F120030AD5C2F107
:10020000200320FA02F001FA03F321FA02F140EA96
:100210000300704721FA03F04FF00001704700001F
:100220000FB41CB5074B06AA7B446946009005989D
:1002300000F0C3FC0020694600F0D2FC1CBC5DF855
:1002400014FB0000B50900002DE9F041064600242A
:1002500010687529314616A510D0AFF3008000282C
:1002600002DA404213A507E031688A0701D512A5DA
:1002700002E0490704D511A5012401E0AFF3008095
:1002800000210A2206F1240709E0B0FBF2FCB0FBD2
:10029000F2F302FB1C00303078541846491C002849
:1002A000F3D123462A463046BDE8F04100F017BAA4
:1002B000000000002D0000002B00000020000000C6
:1002C0002DE9F0474FF0000A89460446C0F820A007
:1002D0002046E1688847002876D0252806D0D4E952
:1002E00001219047206A401C2062F1E7E168204626
:1002F00000268847C4F81CA005460027C4F818A0AB
:100300002A2D09D0284603F096FB38B304EB870862
:10031000303DC8F8185019E059F8041B204604EB8A
:1003200087029161E1688847012F054618D1E0698D
:10033000002820DA26F020061DE0D8F8180000EB8F
:10034000800005EB40003038C8F818002046E1680E
:100350008847054603F06FFB0028EED1012F0AD035
:100360002E2D08D12046E16888477F1C0546022FC4
:1003700046F02006C4DBA069002803DA404246F0BC
:100380000106A061F00701D026F010066C2D0AD0FE
:10039000682D08D04C2D39D06A2D35D0742D35D02C
:1003A0007A2D33D016E0E1682F4620468847B842C0
:1003B00005460AD16C2F27D04FF48060E1680643D0
:1003C00020468847054605E027E06C2F1AD04FF4F9
:1003D000807006430DB3A5F14100192802D82035DD
:1003E00046F400664A462946204626604E46FFF7F8
:1003F000B7FE80B101280BD0F61D26F0070000F1F2
:10040000080965E74020E4E78020D7E70020D5E72A
:1004100006F104095CE7284661E7206ABDE8F08739
:100420000FB400B58DB010A9099000910B904FF05A
:10043000FF300A9000200C90064878440690064849
:1004400078446A4607900F9909A800F0E3FB0DB0C5
:100450005DF814FBF70700000F0800002DE9FF5FAF
:100460001D464FF0FF3B91464FF000085F46D5E92F
:100470000146A96901987F1C8847296A82468847F6
:100480000028F6D1BAF1FF3F0CD0002E24F4C0644E
:1004900019DD600614D5BAF12B0F09D0BAF12D0F72
:1004A0000ED103E0584604B0BDE8F09F44F48064E8
:1004B000A96901987F1C8847761E8246002E02DDBE
:1004C000BAF1300F03D0B9F1000F26D032E0A9699C
:1004D000761E01987F1C44F400748847002E8246E3
:1004E00005DDBAF1780F06D0BAF1580F03D0B9F193
:1004F000000F10D01EE0B9F1000F02D0B9F1100FBB
:1005000018D1A969761E01987F1C24F400748847CD
:100510008246102002E0082000E00A20814609E01F
:10052000A96908FB0908761E01987F1C44F4007431
:1005300088478246002E05DD4946504600F055FBAF
:100540000028EDDAE96901988847A00502D46FF028
:100550000100A8E7E00725D1600613D5600502D5A4
:10056000C8F1000000E0404629680A1D2A600968B9
:10057000220501D5087015E0220701D5088011E099
:1005800008600FE02868011D29600068210502D578
:1005900080F8008006E0210702D5A0F8008001E085
:1005A000C0F8008038467EE730B505460B462A463F
:1005B00013F8014B12F8010B08B1A042F8D01CB19E
:1005C000002802D06D1CF1E7284630BD10B5431C51
:1005D00002E010F8011B71B18107FAD14FF001322E
:1005E00002C88C1A8C4314EAC211F9D0C01A0A0648
:1005F00003D0C01E10BDC01A10BD0A0401D0801E59
:1006000010BD0902FCD0401E10BD4FF0000200B525
:10061000134694469646203922BFA0E80C50A0E825
:100620000C50B1F12001BFF4F7AF090728BFA0E8D3
:100630000C5048BF0CC05DF804EB890028BF40F89F
:10064000042B08BF704748BF20F8022B11F0804FE1
:1006500018BF00F8012B70474FF0013C50F8042BF5
:1006600051F8043B9A4221D1A2EB0C03934313EAC5
:10067000CC1317D150F8042B51F8043B9A4215D1F2
:10068000A2EB0C03934313EACC130BD150F8042BC9
:1006900051F8043B9A4209D1A2EB0C03934313EAAD
:1006A000CC13DBD04FF00000704700BFD01A01BA66
:1006B000B1FA81F101F0180122FA01F0CB40C1F149
:1006C0002001DBB2C0B2C01A2CFA01F3D11A914357
:1006D00011EAC311E6D170477047704770472DE9A2
:1006E000F0470D4699469246044600F124080168F9
:1006F000880604D5E06921F01001216000E00120A6
:10070000A84201DD471B00E00027A1697A1902EB2E
:100710000900081AA0612078C00602D42046AFF371
:100720000080002608E0D4E901211AF8060090476D
:10073000206A401C761C20624E45F4DB2078C006FF
:100740000AD52046AFF3008006E0D4E9012130202D
:100750009047206A401C2062381EA7F10107F4DC94
:1007600007E0D4E9012118F805009047206A401CF1
:100770002062281EA5F10105F3DC2046AFF30080BE
:100780002078000602D50220BDE8F0870120FBE7B3
:1007900070472DE9FF4F0C461E464FF0FF378BB0D8
:1007A000D2E90001DDF860800A908A46C1F30A555B
:1007B00005B93D46002108464FF00000BAF1000F90
:1007C00000F4400005DA00EB80004FF4400101EA3C
:1007D00050004FEA9059B9F1010F00DDB9460A986F
:1007E00050EA4A000ED044F61050A5F2FF354543BA
:1007F0002F14B8F1000F1ED07542291E1EDDC9F15D
:1008000000021CE0B8F1010F4FF0000001D03021D0
:1008100003E0F24305E02154401CB042FBDB3046CC
:100820000022002121540B99C1F80880C1E9002061
:100830000FB0BDE8F08FBD1B6D1CDEE74A4600DA45
:10084000694206A800F062FC06AB93E8070003AB20
:1008500083E8070050460A9900F00DFD8DE8070077
:10086000A0F500501F3800900398002D0ADD42F2D9
:100870001F014A460844002303A90390684600F07C
:1008800076FF09E0A0F500504A461F38002303A96F
:100890000390684600F080FF8DE807000004000C1C
:1008A00003D04FF0FF30410800E01046B8F1000FD0
:1008B00003D00022009215461EE0751E05D400F0FC
:1008C000DDF9303262556D1EF9D5B3460122084379
:1008D00002D000227F1C04E02078302801D10022C1
:1008E0007F1E002A099784D01DE0112D07DA00F041
:1008F000C5F9303262556D1C50EA0102F5D108434A
:1009000002D00098C8B10EE00021681E05E0235C0B
:10091000625C63542254401E491C8142F7DBAB46A3
:10092000A81B401E0990002004F80B000B98099AA0
:10093000C0F80880C0E9002B7AE711264FF00008C4
:1009400057E72DE9F04F88460446D21D22F00701F3
:1009500091B0D1E90001CDE90A0103F048F802465F
:100960000B98C00F01D02D2007E02068810701D52A
:100970002B2002E0202101EAC000032A099001D0C7
:10098000072A05DB03464146204600F0C5F90BE186
:100990002078800601D5E06900E00620B8F1650FF7
:1009A000814606D0B8F1660F18D0B8F1670F70D144
:1009B00031E00020B9F1110F009001DB112301E0BB
:1009C00009F101030AAA01A90CA8FFF7E2FEDDE97B
:1009D0000C70002609F10105834647E001204B46D3
:1009E00000904FF000470AAA01A90CA8FFF7D1FE1A
:1009F000DDE90DB00C995D46002610B909F1010042
:100A00000D18B9EB050003D4C0F1FF3609F101055B
:100A1000A5EB09002BE0B9F1010F01DA4FF0010954
:100A20000020B9F1110F0090484601DD112300E0CC
:100A300003460AAA01A90CA8FFF7ABFEDDE90C707A
:100A40004D4600268346207800070AD4AB4500DADD
:100A50005D4601A8012D04DD411911F8011C302962
:100A600007D04F4502DA17F1040F04DA012082465D
:100A70000FE06D1EEEE7002F02DCED1B3E4403E0AD
:100A8000781CA84200DD7D1CB81B00F1010A4FF064
:100A900000472078000703D4AA4501DB4FF0FF3A56
:100AA0000021B7F1004F0DF143088DF8431024D019
:100AB00002202B23002F01DA7F422D230A21021E60
:100AC000A0F1010000DC5FB197FBF1FC97FBF1F2B4
:100AD00001FB1C7C17460CF1300C08F801CDEEE749
:100AE000A8F1010003702188090501D5452100E026
:100AF0006521A0F1010800F8011C09980FA9A1EBDC
:100B00000807FF1D00B10120411901EBEA70A1693E
:100B10003844081A401EA0612078C00602D420463E
:100B2000AFF30080099828B1D4E901219047206AE9
:100B3000401C20622078C00622D52046AFF30080FA
:100B40001EE0002E04DBB34502DD01A8805D00E05D
:100B50003020D4E901219047206A401C2062761C95
:100B6000AAF101005FEA000A0AD100F083F8C06828
:100B70000168405CD4E901219047206A401C206252
:100B8000281EA5F10105DCDC07E0D4E9012118F8F5
:100B9000010B9047206A401C2062381EA7F1010714
:100BA000F3DC2046AFF30080032011B041E60000E3
:100BB00001694A1C02610878704700B58FB0CDE921
:100BC00001310021059105497944CDE90310114611
:100BD0006846FFF775FB0FB000BD0000E5FFFFFFA3
:100BE0000A6802F8010B0A6070473A2800D23038D0
:100BF00020F02002412A01D3A2F13700884201D31C
:100C00004FF0FF3070470000026811441378016014
:100C100018467047D16005497944516104497944C7
:100C2000116200211161114600F0B6B8EDFFFFFF1F
:100C3000E5000000426842B1016811F8013B23B1B0
:100C4000521EC0E90012184670470121C160881E7B
:100C5000704742685AB1C368016843B983688B42E0
:100C600005D0491E521CC0E90012002070474FF009
:100C7000FF30704700487047E805002030B5B0F1FC
:100C80000A024FEA900E71F100034EEA817EB0EB4A
:100C90000E0061EB91014FEA101E4EEA017E10EB4F
:100CA0000E0041EB11114FEA102E4EEA016E10EBCF
:100CB0000E0041EB11214FEA104E4EEA014E10EBAF
:100CC0000E0041EB1141401841F100014FEAD00004
:100CD00040EA41704FEAD10110EB80054FEA8104F0
:100CE00044EA907444EB01046D1944EB0404521B74
:100CF000A3414FF0000348BF0A3200D530BD401C6D
:100D000041F1000130BD10B5044600F09BFA0068C7
:100D1000005D00F0010010BD2DE9F0411F460446C2
:100D200003260168072A01F4006004DB08B116A558
:100D300005E016A503E008B115A500E015A521F012
:100D400010002060A069C01EA0610FB1401EA0610C
:100D50002046AFF300804FB1D4E9012138469047D7
:100D6000206A401C2062C01C206206E0206AFAE76C
:100D7000D4E9012115F8010B9047761EF8D22046E0
:100D8000AFF30080BDE8F0814E414E006E616E0011
:100D9000494E4600696E66002DE9F34F4FF0000A98
:100DA0000C4656468DB001200C9001F10C000B90C2
:100DB00062690B9801219047051E2DD0252D2CD05E
:100DC000216A8847C0B162690B9801219047216A66
:100DD00088470028F7D16269411E0B98904700E0D0
:100DE000761CA1690D988847216A88470028F7D1A9
:100DF000E1690D988847DBE7A1690D988847A8420B
:100E0000074601D1761CD3E7E1690D9888477F1C1E
:100E100002D1BAF1000F6FD06BE162690B98002725
:100E20003D46394690472A2804D162690B98012132
:100E300090470125DFF8D08262690B980121904725
:100E4000A0F130010A290AD24745E5DC07EB87010A
:100E500000EB4107303FDFD445F01005ECE7E90631
:100E600001D46FF000476C280AD04C2814D06828B1
:100E700015D06A280DD074281CD07A281AD01DE00D
:100E800062690B98012190476C2802D045F0040557
:100E900014E045F002050DE045F020050AE0626926
:100EA0000B9801219047682802D045F0080505E01D
:100EB00045F4006562690B9801219047C4E9015728
:100EC00065283DD019DC58287AD00CDC452837D06D
:100ED00004DC252826D041289ED131E046282FD099
:100EE000472899D12CE05B2877D0612828D0632847
:100EF0007CD0642823D15AE0F6E06F2848D008DC83
:100F000066281DD067281BD0692821D06E2816D1ED
:100F100027E0702845D0732868D0752847D07828F6
:100F20000DD14DE0A1690D988847252805463FF46D
:100F300069AFE1690D9888476D1C3FF46AAFD8E04E
:100F40000D9923466A466FF00100AFF30080C5E0BB
:100F500045F0400023464FF000026060A80736D4F9
:100F60003EE0E8077FF447AF2068011D216000687C
:100F7000290501D506701BE7290701D5068017E76B
:100F8000A90703D5F117C0E9006111E706600FE773
:100F900045F0400023464FF008026060A80716D4D1
:100FA0001EE040F60E0125EA0100606016E045F003
:100FB000400023464FF00A026060A80707D40FE004
:100FC00045F040006060A80708D5234610220D991F
:100FD0006FF00100AFF3008080E007E010222346AD
:100FE0000D996FF00100FFF739FA77E04FF0000933
:100FF00063284F46C8464B46CB4602D05B2806D0F6
:1010000038E0E80601D40120A060012732E06269DF
:10101000D4F80CB00B98012190475E2807D14FF00F
:10102000010949466269D4F80CB00B9890472169D0
:1010300039B900210A4603AB43F82120491C08298D
:10104000FADBD8B3216949B308F1010862690B984A
:10105000012190475D28F4D1B9F1000F09D000209B
:1010600003A951F82020D24341F82020401C082831
:10107000F7DB03AB2069002820794FEA40701ED0CF
:101080005B462246CDF80080CDE901970D990028F6
:101090006FF0010020DAAFF300801FE0C11703AA50
:1010A00000EBD1614B1121F01F0102EB8302411AC9
:1010B00013680120884003431360C7E719E00D99C6
:1010C000224600286FF00100009702DAAFF300809B
:1010D00004E0AFF3008001E0AFF3008000280ADAFB
:1010E000401C06D10C9820B14FF0FF300FB0BDE886
:1010F000F08F5046FAE7E90701D10AF1010A0644E8
:1011000000200C9054E60000CCCCCC0C2DE9F0472C
:10111000814616468AB0354878440DC88DE80D00E2
:1011200032487844801C03AC0DC884E80D0041F6B9
:101130009B300844372190FBF1F290FBF1F5A5F1CB
:10114000800501FB12041B3C02D56442012000E033
:101150000020DFF898A080460027FA44AAF1BE0AD2
:101160000EE0E0070AD03246684607EB470101234C
:101170000AEB810100F010FB8DE8070064107F1C72
:10118000002CEED1194F7F44AE3F19E0E80715D08F
:1011900007EB04100DF1180A90E80E008AE80E0023
:1011A000C068F04201D1981908903246012306A97F
:1011B00003A800F0F1FA03AB83E807006D10641C8C
:1011C000002DE3D14FF0010332466946B8F1000F1C
:1011D00003A802D000F0CBFA01E000F0DDFAC9E983
:1011E0000001C9F808200AB0BDE8F08734550000B6
:1011F00000487047C80500207546FFF7F9FFAE4666
:1012000005006946534620F00700854618B020B512
:10121000FEF7E0FFBDE820404FF000064FF000076A
:101220004FF000084FF0000B21F00701AC46ACE88E
:10123000C009ACE8C009ACE8C009ACE8C0098D46FB
:101240007047000010B5FFF715FD001D10BD00BF71
:10125000692B000010B50446AFF300802046BDE8BE
:101260001040FEF7A3BF000001491820ABBEFEE707
:101270002600020070475FEA400C08BF91F0000FA3
:101280004FEA8C234FEAC12243EA51514FEA1C50E6
:1012900018BF00F5F0404FEA300018BF41F00041A0
:1012A0005FEA6C5C00F02980BCF1FF3F08BF40F0B2
:1012B00080407047130C06BF12044FF0100C4FF023
:1012C000000C130E04BF12020CF1080C130F04BF24
:1012D00012010CF1040C930F04BF92000CF1020CEC
:1012E000D30F04BF52000CF1010C11464FF0000265
:1012F000A0F11F00A0EB0C00704711F0004F08BFD9
:10130000704731F000413FF4D5AF0B0C06BF090424
:101310004FF0100C4FF0000C0B0E04BF09020CF143
:10132000080C0B0F04BF09010CF1040C8B0F04BF58
:1013300089000CF1020CCB0F04BF49000CF1010C29
:10134000CCF12003A0EB0C0022FA03F302FA0CF21A
:1013500041EA030100F10100704720F07F4C80EA70
:10136000030023F07F47ACEB070303F57C5300F049
:10137000004003F1FF032DE980494FEA154B09B402
:101380004FEA144325EA0B4E24EA03480FF20426E1
:1013900006EB132749083E785FEA320203FB066733
:1013A000C7F5000707FB06F64FEA54374FEAD64663
:1013B00006F1020607FB066CCCF1005C4FEA1C4705
:1013C0002CEA074C07FB06F40CFB06F504EB15466C
:1013D0004FEA961634BF00204FF000404FEAD13755
:1013E00006FB07FC4FEA1C4C0CFB0BF7D21B03FB64
:1013F0000CF761EB07010CFB0EF7B0EB074072EB4B
:1014000017420CFB08F734BFA2EB0742B2EB0742CE
:1014100061EB17414FEA0C444FEA910706FB07FCCA
:101420004FEA1C4C0CFB0BF7B0EBC74072EB57328A
:1014300003FB0CF734BFA2EBC742B2EBC74261EB30
:1014400057310CFB0EF7B0EBC70072EB57720CFB79
:1014500008F734BFA2EBC702B2EBC70261EB5771CA
:10146000039F4FEA816141EA921104EBCC044FEAF9
:10147000D1374FEA826206FB07FC42EA90124FEA3C
:1014800080604FEA1C4C0CFB0BF7D21B03FB0CF7E4
:1014900061EB07010CFB0EF7B0EB074072EB174254
:1014A0000CFB08F734BFA2EB0742B2EB074261EB3B
:1014B00017414FEA8C554FEA910704EB9C2406FB39
:1014C00007FC4FEA1C4C0CFB0BF7B0EBC74072EB70
:1014D000573203FB0CF734BFA2EBC742B2EBC74253
:1014E00061EB57310CFB0EF7B0EBC70072EB577294
:1014F0000CFB08F734BFA2EBC702B2EBC70261EBEB
:10150000577115EB4C254FEA816141EA92114FEA80
:1015100082624FEAD13742EA901206FB07FC44F19F
:1015200000044FEA80604FEA1C4C0CFB0BF7D21B07
:1015300003FB0CF761EB07010CFB0EF7B0EB074068
:1015400072EB17420CFB08F734BFA2EB0742B2EB79
:10155000074261EB174115EB1C154FEA813141EA57
:1015600092414FEA823242EA90424FEA80304FEA9B
:101570000C7644F1000448EA03434EEA0B484FF06E
:10158000000EB2EB080C71EB030724BF624639462C
:101590004EEB0E0E4FF0000B0018524149414BEB41
:1015A0000B0BB2EB080C71EB03077BF1000B24BFB4
:1015B000624639464EEB0E0E4FF0000B00185241BA
:1015C00049414BEB0B0BB2EB080C71EB03077BF1C2
:1015D000000B24BF624639464EEB0E0E51EA02075D
:1015E00018BF46F0010616EB0E7655F1000254F1D5
:1015F000000103D5BDE88901BDE80088BDE8890187
:10160000BDE80048B619524141EB0101A3F10103C5
:10161000704780807F7E7D7C7B7A7978777676755F
:101620007473727171706F6E6E6D6C6C6B6A6A69D7
:101630006868676666656464636362616160605F71
:101640005F5E5E5D5D5C5C5B5B5A5A5959585857EA
:101650005756565555555454535352525251515052
:1016600050504F4F4F4E4E4D4D4D4C4C4C4B4B4BA5
:101670004A4A4A49494948484847474747464646EB
:101680004545454444444443434343424242424126
:101690004141002B9C4630D477002BD01CB54FEA3B
:1016A000370703B44FF010004FF01001BAF1000FEC
:1016B00006D0BCF1000FDCBF40F0080040F008018C
:1016C0004FF000000FBCBDE810400BF1010BBBF167
:1016D000010F08BF5FEA170722BF12F1010211F1E3
:1016E00001014FF0004143F1000300F0004043EAE4
:1016F00000007047F9D35708D0E746EA064613F1D1
:10170000400F4FEA16461FDD13F1200FDFBF1643CF
:101710000A46002120335B42BED0C3F1200746EACF
:10172000064602FA07F74FEA164646EA0706C3F1ED
:10173000200722FA03F201FA07F721FA03F14FF02A
:10174000000342EA0702A7E746EA020646EA06461F
:101750004FEA164646EA0106BCBF46EA0646360C84
:101760004FF000034FF000024FF0000194E72DE925
:10177000804C9A46934670B491E8380007C831EA25
:10178000400C48BF34EA430C03D5FFF7E6FDFFF7F2
:1017900080FFF0BCBDE8008C2DE9804C9A46934652
:1017A00070B491E8380007C810F0804F08BF13F0FC
:1017B000804F03D100F005F8FFF76BFFF0BCBDE8E8
:1017C000008C20F07F4780EA030023F07F4C07EB7A
:1017D0000C03A3F57C5300F00040A3F1FE0392F04C
:1017E000000F00F0B38095F0000F00F077802DE936
:1017F00001494FEA11404FEA144621EA004800FB34
:1018000006FC24EA064708FB06F607FB08F800FB7F
:1018100007F718EB06484CEB164C4FEA124B18EB47
:1018200007484FEA15464CEB174022EA0B4E0BFBDC
:1018300006FC25EA06470EFB06F607FB0EFE0BFB31
:1018400007F71EEB064E4CEB164C4FF000061EEB56
:10185000074E4CEB174B18EB0B0840F1000018EB50
:101860000E0B58EB000840F100008F1A4FF00001FA
:101870003CBFC943661B14BFB5EB040C00213CBF41
:10188000C943F61B4FEA17444EEA8E0E27EA044579
:101890004FEA1C4704FB07622CEA074C05FB07F7DD
:1018A0000CFB05F604FB0CFC16EB074642EB17425B
:1018B00016EB0C4642EB1C421BEB060658EB0202F1
:1018C000414146EA9E0601D5BDE80189B61952415B
:1018D00041EB0101A3F10103BDE801894FEA144581
:1018E0004FEA114724EA054621EA074C05FB07F4B5
:1018F00006FB07F70CFB06F105FB0CFC11EB07419F
:1019000044EB17444FEA124711EB0C4144EB1C44E3
:1019100022EA074C05FB07F206FB07F70CFB06F66D
:1019200005FB0CFC16EB074642EB174216EB0C4688
:1019300042EB1C456A1854F1000148BF7047B619C4
:10194000524141EB0101A3F10103704795F0000FF3
:1019500037D04FEA11424FEA144721EA024624EAFF
:10196000074C02FB07F106FB07F70CFB06F402FB32
:101970000CFC14EB074441EB17414FEA154714EBFD
:101980000C4441EB1C4125EA074C02FB07F506FB22
:1019900007F70CFB06F602FB0CFC16EB074645EBC3
:1019A000174516EB0C4645EB1C42121951F100018C
:1019B00048BF7047B619524141EB0101A3F1010341
:1019C00070474FEA14454FEA114724EA054621EAD9
:1019D000074C05FB07F106FB07F70CFB06F24FF07F
:1019E000000605FB0CFC12EB074241EB174112EB22
:1019F0000C4251EB1C4148BF7047921841EB01016A
:101A0000A3F101037047000010B50024084800F05E
:101A1000D7FB6421064800F035FB18B9044800F0F4
:101A20005BFA0446024800F02BFC204610BD000083
:101A30005C00002010B50024084800F0C1FB6421C0
:101A4000064800F01FFB18B9044800F045FA0446A8
:101A5000024800F015FC204610BD00008C0000205C
:101A600070B5044600688168C943C90717D1816809
:101A700021F00101816000F0DBFD05460AE000BFB6
:101A800000F0D6FD401B022804D920688068C043BE
:101A9000C00706D020688068C043C007F0D000208F
:101AA00070BDA06A40F01000A062E06A40F0010042
:101AB000E062012070BD0000F8B5002604460096E3
:101AC00000688168C943C9072DD0816841F00101D0
:101AD0008160164816490068B0FBF1F000E0401E36
:101AE00000900028FBD100F0A3FD054616E000BFE2
:101AF00000F09EFD401B022810D920688068C0437A
:101B0000C0070BD0A06A40F01000A062E06A40F06D
:101B10000100E06284F824600120F8BD206880683C
:101B2000C043C007E4D10020F8BD00001000002031
:101B300040420F00FEE710B500F02CF8CC2000F07A
:101B4000B1F8442000F0AEF800F024F8CC2000F00A
:101B5000A9F8BE2000F0A6F800F06AF8044600F0EC
:101B600067F844EA002000B26FF00304002809DAA5
:101B7000C0F30E0002F050FC214602F0C6FD80F0DA
:101B8000004010BD02F030FC2146BDE8104002F0DC
:101B9000BCBD000070B5124C01222021204600F08F
:101BA00042FD0A2001F04EFF00222021204600F0D5
:101BB0003AFD4FF47075284601F044FF01222021C0
:101BC000204600F030FD3C2001F03CFF2021204663
:101BD00000F024FD2846BDE8704001F033BF00004E
:101BE000000C014070B5114D00222021284600F064
:101BF0001AFD012001F026FF01222021284600F0D5
:101C000012FD092001F01EFF2021284600F006FDEC
:101C10000446642001F016FF01222021284600F02E
:101C200002FD042001F00EFF204670BD000C0140B3
:101C300070B5002425466408FFF7D4FF08B144F0CE
:101C400080046D1CEDB2082DF5D30122202102483D
:101C500000F0E9FC204670BD000C014070B5104D4D
:101C6000044600222021284600F0DDFC012001F07E
:101C7000E9FEE00701D0012200E0002220212846F1
:101C800000F0D1FC762001F0DDFE01222021284663
:101C900000F0C9FCBDE87040042001F0D3BE000094
:101CA000000C014070B505465FF0000405F001002E
:101CB000FFF7D4FF641C6D08E4B2082CF6D370BDA6
:101CC000704772B6FEE7000006490020C86106486A
:101CD000016941F004010161016941F040010161C4
:101CE000704700002801002000200240064A002121
:101CF000D16106490A6942F002020A614861086935
:101D000040F0400008617047280100200020024098
:101D1000044B0022DA61044A136943F001031361A2
:101D20000180704728010020002002401448002252
:101D3000C168CB06134904D5CA6942F00202CA61E0
:101D40001022C3685B0705D5CB6943F00103CB6163
:101D500042F00402C369DB0707D0CB6943F00403F8
:101D6000CB61C16921F00101C161A2F58071013926
:101D700001D0C2607047C16921F00101C1617047A3
:101D8000002002402801002070B5054600F050FCFC
:101D90000646114C09E0681C07D025B100F048FC4C
:101DA000801BA84201D9032070BDE068C007F2D1B2
:101DB000E068800601D52020E060E068C00605D418
:101DC000E069C00702D1E068400703D5FFF7AEFF26
:101DD000012070BD002070BD00200240F8B5002435
:101DE000009490F824202546012A12D0012280F880
:101DF00024204A681F23072A0DD20668776B521EDB
:101E000002EB820293409F430B6893401F4377632A
:101E100019E00220F8BD06680D2A0AD2376BD21FDE
:101E200002EB820293409F430B6893401F4337634A
:101E300009E0F76A0D3A02EB820293409F430B6878
:101E400093401F43F7620A68072306680A2A0AD3E9
:101E5000F7680A3A02EB420293409F438B68934033
:101E60001F43F76008E0376902EB420293409F434B
:101E70008B6893401F4337610A68102A01D0112AEA
:101E800020D1124B02689A4217D193681B0219D4D1
:101E9000936843F4000393600968102912D10C4938
:101EA0000C4A0968B1FBF2F101EB8101490000E045
:101EB000491E00910029FBD104E0816A41F0200114
:101EC0008162012480F824502046F8BD002401409E
:101ED0001000002040420F000068C06C70470000F6
:101EE0002DE9F0414FF0000704003D467ED0A06A86
:101EF000002628B9E66284F82460204600F07EF8C7
:101F00002046FFF7ADFDA16AC90600D420B1A06A42
:101F100040F01000A06269E0A16A21F4885141F00C
:101F20000201A1626268E169237B0A4347EA430137
:101F30000A43A1684FF48077B94209D0012907D03C
:101F40005FF0000194F814C0BCF1010F02D00AE068
:101F50003946F7E7F3B1A36A43F02003A362E36ACB
:101F600043F00103E3622368D3F804C02CF4694C06
:101F70004CEA010CC3F804C021688B68DFF870C01C
:101F800003EA0C0313438B60A168B9420BD001290B
:101F900009D00CE0DFF85CC0A3690CEB43330B43C2
:101FA00043F40061DFE7218A0D05A5F5801521685E
:101FB000CB6A23F470032B43CB62216889680E4BF4
:101FC0001940914208D1E662A16A21F0020141F074
:101FD0000101A162BDE8F081A06A20F0020040F09A
:101FE0001000A062E06A40F00100E0620120F1E729
:101FF000FDF7E1FF00E0FFFFFE0E1FFF10B586B00A
:10200000002100910191029103911A4C03681A4931
:1020100003221A48A34211D18B6943F400738B61E8
:102020008B6903F4007304938B6943F008038B619D
:10203000896901F008010491022113E0104CA342C8
:1020400015D18B6943F480638B618B6903F48063E2
:1020500004938B6943F008038B61896901F00801DF
:1020600004910121CDE90012694600F0E7F906B0BC
:1020700010BD00000024014000100240000C01408F
:10208000002801402DE9F84300270D46044600973B
:1020900000F0CEFA804620688168C90508D5A06A9C
:1020A00040F02000A06284F824700120BDE8F8838D
:1020B0004168C90503D4C06A10F4700F2AD0022009
:1020C00000F054FB3B490968B1FBF0F62068036956
:1020D00039490B424FEA61014FEAA1121FD1C3688F
:1020E0004FEA611C13EA0C0F19D103690B4225D189
:1020F000C068104222D1142023E0681C0AD02DB100
:1021000000F096FAA0EB0800A84203D92068006806
:10211000800725D5206800688007EED52DE003698B
:102120000B4202D1C168114206D0026923490A421A
:1021300006D1C068084203D1542002E0292000E003
:10214000FC204643009816E0681C11D02DB100F029
:102150006FFAA0EB0800A8420AD90098B04207D253
:10216000A06A40F00400A06284F8247003209DE778
:102170000098401C0090B042E6D321686FF0120036
:102180000860A06A40F40070A06220688068C0F314
:10219000424007280CD1207B50B9A06A20F48070FF
:1021A000A062A06AC00403D4A06A40F00100A0624B
:1021B00000207BE71000002024499224499224004B
:1021C00070B5044690F8240001280DD0012084F851
:1021D00024002046FFF770FC02004FF0000005D0FD
:1021E00084F82400104670BD022070BDA16A40F240
:1021F0000123994341F48071A1621F4D23681F4957
:10220000AB4218D10E6816F4702F14D0A66A46F4AB
:102210008016A6620E68760505D5A66A26F40056D5
:1022200046F48056A662A66AF6040AD5E66A26F047
:102230000606E66206E0A66A26F48016A6625E68D6
:10224000E9E7E06284F824006FF00200186020687B
:102250008368C3F34243072B05D1A84208D109681C
:1022600011F4702F04D0816841F480118160B9E7C6
:10227000816841F4A001F9E70028014004240140ED
:1022800010B5044690F82400012807D0012084F8F6
:1022900024002046FFF7E4FB10B107E0022010BD48
:1022A000A16A21F4885141F00101A162002184F862
:1022B000241010BD70B5044600F0BAF90546601C44
:1022C00002D004480078044400F0B2F9401BA04258
:1022D000FAD370BD040000202DE9F04705462648DA
:1022E0000F460126017E01290FD00121814601768A
:1022F0002868DFF888804CF25034022808D0A246C3
:102300002046FFF741FDA8B131E00220BDE8F0878B
:102310002046FFF739FD08BB0120FFF7D5FC20461A
:10232000FFF732FDD8F81010064621F00401C8F876
:1023300010101CE04FF0FF303860AC6811E0204610
:10234000FFF7D4FC5046FFF71FFDD8F81010060029
:1023500021F00201C8F8101001D03C6007E004F53C
:102360008064D5E9020100EB8120A042E7D800217A
:1023700089F818103046C9E72801002000200240E3
:102380000348016941F080010161002070470000AD
:10239000002002402DE9F05F07461C4888460024D3
:1023A000017E15461E46012909D00121814601768C
:1023B0004CF2503A5046FFF7E7FC18B122E00220F9
:1023C000BDE8F09F012F02D0022F00D00427D34692
:1023D000DFF83CA0220128463146FDF70DFF81B20F
:1023E00008EB4400FFF794FC5846FFF7CDFCDAF801
:1023F000102022F00102CAF8102018B9641CE4B2BF
:10240000BC42E7D3002289F81820D9E72801002030
:1024100000200240064900200A69120607D5054A35
:102420004A60054A4A600969090600D501207047DB
:102430000020024023016745AB89EFCD2DE9F84F1D
:10244000DFF8B8910024A9F1040B23460F2709F106
:10245000040AABF1040EC9E00125A5402A40AA42B6
:102460007DD1674ED1F804C0ACEB0608B44532D03C
:1024700014DCBCF1030F3AD009DCBCF1000F2AD008
:10248000BCF1010F1CD0BCF1020F31D11DE0BCF139
:10249000110F17D0BCF1120F2AD119E0B8F5881F1F
:1024A00019D006DCB8F5803F15D0B8F5801F1FD1D4
:1024B00011E0B8F5001F0ED0B8F5041F18D10AE0DE
:1024C000CB6815E0CB681B1D12E0CB6808330FE02A
:1024D000CB680C330CE08B682BB1012B4FF0080359
:1024E00003D0456104E0042302E0056100E000231D
:1024F000FF2A01D8064601E000F104064FEA8405F0
:1025000001D9A5F12005D6F8008007FA05FC28EAD4
:102510000C0803FA05F548EA0508C6F800804D687E
:10252000ED0062D5374DAE6946F00106AE61AD698A
:1025300024F0030605F001050095334D06EB050C6C
:10254000DCF80850A607360F07FA06F825EA080552
:10255000DFF8B880404503D14FF0000817E044E0B1
:10256000DFF8AC80404502D14FF001080FE0DFF802
:10257000A480404502D14FF0020808E0DFF89880BF
:10258000404502D14FF0030801E04FF0040808FA7B
:1025900006F848EA0508CCF808804D68D9F80060CC
:1025A000ED024D4601D5164300E096432E604D687E
:1025B000DAF80060AD02554601D5164300E09643B7
:1025C0002E604D68DBF80060AD035D4601D5164313
:1025D00000E096432E604D68DEF80060ED0375461E
:1025E00001D5164300E096432E60641C0D682A4610
:1025F000E5407FF431AFBDE8F88F000008040140EA
:1026000000001110001002400000014000080140CD
:10261000000C014000100140001401408068084097
:1026200000D0012070470AB1016170470904FBE73F
:10263000014880687047000004000020024881685B
:10264000027811448160704704000020074810B5EB
:10265000016841F010010160032000F075F80F20BF
:1026600000F006F800F024F8002010BD0020024021
:1026700070B50D4D04464FF47A712878B1FBF0F037
:102680000A490968B1FBF0F000F0A4FB48B9102C2E
:1026900007D200222146501E00F036F800206C6060
:1026A00070BD012070BD000004000020100000205B
:1026B0000C4808B5816941F001018161816901F02F
:1026C00001010091C16941F08051C161C06900F010
:1026D000805000900448416821F0E06141F00071B1
:1026E000416008BD0010024000000140002809DBE5
:1026F00000F01F02012191404009800000F1E0201C
:10270000C0F8001170470000F0B40E4B1B680C4677
:10271000C3F30223C3F10705042D00D90425191DB5
:10272000072901D2002300E0DB1E012606FA05F18D
:10273000491E214099409E40761E16403143F0BC10
:1027400001F069B90CED00E0064900F007020868E5
:102750004FF6FF03184040EA0220034A1043086086
:10276000704700000CED00E00000FA0510B50146CE
:102770000020234C012922D0022939D010291DD153
:1027800061682268D20119D51E48C1F38342C9038A
:10279000805C0AD561681B4AC1F34041921E515CBE
:1027A000194AB2FBF1F1484301E018494843616816
:1027B000490203D440000321B0FBF1F010BD226AAE
:1027C000C2F30121012903D1920701D5C80310BD2D
:1027D000022905D1626A920702D549F6404010BD30
:1027E0000329FCD121688903F9D54FF2244010BD9B
:1027F00000F02AF96168C1F38131491C4900DBE727
:10280000001002409A47000800127A0000093D00BB
:102810002DE9F84305460078354CC00754D0E069EF
:102820000026C00008D4E06940F08050E061E06913
:10283000012600F0805000902E480168C90512D48E
:102840000168804641F480710160FFF7F1FE0746A0
:1028500005E000BFFFF7ECFEC01B642823D8D8F8C2
:102860000000C005F6D5206A10F4407021D0A98878
:1028700001F4407181421CD0206A1F49012220F4DA
:1028800040700A6000220A602062C00711D0FFF782
:10289000CFFE074641F2883808E000BFFFF7C8FEC8
:1028A000C11B414502D90320BDE8F883206A800797
:1028B000F4D5206A696820F44070084320621EB194
:1028C000E06920F08050E0612878800705D56068D5
:1028D000A96820F44040084360602878C00605D508
:1028E0006068E96820F48000084360600020DBE74E
:1028F0000010024000700040400442422DE9F047C1
:102900000F46050061D0434E306800F00700B84222
:1029100009D2306820F0070038433060306800F09A
:102920000700B84251D128683B4C810712D54007B7
:1029300003D5606840F4E06060602878000703D544
:10294000606840F4605060606068A96820F0F00042
:10295000084360602878C00728D06868012810D034
:102960002168022810D0890700292EDA616821F039
:10297000030101436160FFF75BFE804641F2883945
:102980000DE021688903EFE78901EDE7FFF750FECD
:10299000A0EB0801494502D90320BDE8F087606833
:1029A000696800F00C00B0EB810FEFD1306800F0E7
:1029B0000700B8420BD9306820F007003843306078
:1029C000306800F00700B84201D00120E5E7287820
:1029D000400705D56068E96820F4E060084360605E
:1029E0002878000706D56068296920F4605040EA1D
:1029F000C100606000F038F86168084AC1F3031153
:102A0000515CC8400649086006480068FFF730FE80
:102A10000020C2E70020024000100240AA47000840
:102A2000100000200800002004480549006849689B
:102A3000044AC1F30221515CC840704710000020D5
:102A400000100240BA470008044805490068496878
:102A5000044AC1F3C221515CC840704710000020F5
:102A600000100240BA4700080E4A51680E4801F0B3
:102A70000C03042B11D0082B0FD10C48C1F3834356
:102A8000C903C05C0AD55168084AC1F34041921E8F
:102A9000515C054A5043B0FBF1F07047044948438C
:102AA000704700000010024000127A0088470008BA
:102AB00000093D002DE9F84F040070D02078C04D8A
:102AC000C00749D06868C0F38100012807D0686852
:102AD000C0F38100022809D16868C00306D52868C0
:102AE000800339D560680028E7D035E06068B0F52C
:102AF000803F0BD010B1B0F5A02F11D0286820F482
:102B000080302860286820F4802002E0286840F4A3
:102B100080302860606890B1FFF78AFD06460AE0C1
:102B2000286840F480202860F0E700BFFFF780FDB0
:102B3000801B642873D828688003F7D50CE0FFF762
:102B400077FD064605E000BFFFF772FD801B642895
:102B5000F0D828688003F7D420789A4E80074FF089
:102B600001094FF0000839D5686810F00C0F07D044
:102B70006868C0F38100022809D16868C00306D4E0
:102B80002868800714D52069012808D110E0206941
:102B9000B0B1C6F80090FFF74BFD074605E00AE12B
:102BA000FFF746FDC01B0228C4D828688007F7D568
:102BB0002868616920F0F80040EAC10028600DE053
:102BC000C6F80080FFF734FD074604E0FFF730FD4C
:102BD000C01B022823D828688007F7D42078000774
:102BE0002CD57948A169D9B1C0F80090FFF720FD34
:102BF000074604E0FFF71CFDC01B02280FD8686AD7
:102C00008007F7D571484FF4FA510068B0FBF1F036
:102C1000009000BF0098411E0091FAD20EE080E0C3
:102C2000C0F80080FFF704FD074604E0FFF700FD51
:102C3000C01B022875D8686A8007F7D4207840073F
:102C400060D5E8690027C00008D4E86940F08050EA
:102C5000E861E869012700F0805000905C48016855
:102C6000C90513D40168834641F480710160FFF700
:102C7000DFFC824606E000BFFFF7DAFCA0EB0A00AB
:102C800064284ED8DBF80000C005F5D5E0680128BF
:102C90000AD008B1052813D0286A20F00100286264
:102CA000286A20F0040002E0286A40F0010028624F
:102CB000E06841F2883B98B1FFF7BAFC82460BE02E
:102CC000286A40F004002862EEE700BFFFF7B0FC7E
:102CD000A0EB0A0159455AD8286A8007F6D50CE0BE
:102CE000FFF7A6FC824605E0FFF7A2FCA0EB0A0175
:102CF00059454CD8286A8007F6D41FB1E86920F0FE
:102D00008050E861E06988B36968C1F381010229F4
:102D100044D00228C6F8608004D0FFF789FC04463E
:102D200038E034E0FFF784FC074604E0FFF780FC5E
:102D3000C01B02282BD828688001F7D4206AB0F580
:102D4000803F05D16868A16820F4003008436860BE
:102D5000D4E908010843696821F4741108436860E4
:102D6000C6F86090FFF764FC044606E025E000BF6B
:102D7000FFF75EFC001B022809D828688001F7D500
:102D80001BE000BFFFF754FC001B022802D9032000
:102D9000BDE8F88F28688001F4D40EE00128F7D050
:102DA0006868226A00F48031914204D1616A00F4BB
:102DB0007010884201D00120EAE70020E8E7000017
:102DC00000100240000042428004424210000020F5
:102DD0000070004010B5401EB0F1807F01D301208B
:102DE00010BD4FF0E02460610F21601700F013FE6A
:102DF0000020A06107202061002010BD70B50400F4
:102E000004D094F84100002510B106E0012070BD07
:102E100084F84050204600F023F8242084F8410034
:102E20002068C16821F40051C160204600F016FD01
:102E30002068016921F4904101612068416921F015
:102E40002A0141612068C16841F40051C160656494
:102E5000202084F8410084F842006563002070BDA2
:102E600030B585B000240094019402940394006866
:102E7000184988422BD11848C16941F40031C16119
:102E8000C16901F400310491816941F0040181615B
:102E90008069124D00F0040004900420009002208C
:102EA00001900320039069462846FFF7C7FA0820DF
:102EB000CDE90004694628460294FFF7BFFA0022D4
:102EC00011462620FFF720FC2620FFF70FFC05B057
:102ED00030BD0000004400400010024000080140E6
:102EE0002DE9F843044690F84100984616460D46F1
:102EF000202802D00220BDE8F88385B17EB10020F1
:102F00006064212084F84100FFF792FBA68481468B
:102F1000E684A0682027B0F5805F02D003E001209E
:102F2000E9E7206910B12E4600250EE000260CE0EE
:102F30008021204600F0EEFCA8B9C6B116F8010BBE
:102F400021684860E08C401EE084E08C4B464FF0E6
:102F50000002CDF800800028EAD14FF04001204661
:102F600000F0D8FC40B184F841700320C3E735F885
:102F7000020BC0F30800E3E784F841700020BAE7D1
:102F8000FEE700003EB5002411480094019402942D
:102F90000E498460016004730475012505614FF4D6
:102FA00060214460C161FEF79BFF08B1FEF789FE16
:102FB0000920CDE90005694602940548FEF70EFF99
:102FC000002801D0FEF77DFE3EBD00000024014038
:102FD0005C0000203EB50024114800940194029446
:102FE0000E498460016004730475012505614FF486
:102FF00060214460C161FEF773FF08B1FEF761FE16
:103000000820CDE90005694602940548FEF7E6FE72
:10301000002801D0FEF755FE3EBD0000002801400B
:103020008C0000202DE9F04186B000200090019036
:10303000029003902948816941F010018161816902
:1030400001F010010491816941F0200181618169E1
:1030500001F020010491816941F0040181618169DD
:1030600001F004010491816941F0080181618069E6
:103070001B4E00F008004FF46044049001222146EA
:103080003046FFF7D0FA174F012203213846FFF7E9
:10309000CAFADFF85480012220214046FFF7C3FA24
:1030A000009401240325694630460194CDE9024588
:1030B000FFF7C4F9CDE9005469463846CDE9024529
:1030C000FFF7BCF92020CDE9000469464046CDE970
:1030D0000245FFF7B3F906B0BDE8F08100100240E9
:1030E0000010014000080140000C01400C4810B5E0
:1030F0000A4901604FF4E1314160002181600C22F6
:10310000C160C0E904128161C161FFF777FE002848
:1031100003D0BDE81040FEF7D4BD10BD0044004010
:10312000BC000020FEE7FEE730B40021084B0A4651
:103130005FF0000003EBC004401CC0B26254802862
:10314000F8D3491CC9B20829F2D330BC00F0CAB880
:103150004801002030B1012807D100215FF0A7000D
:1031600000F0AEB90021A620FAE7704710B558B1BB
:10317000012810D10021C02000F0A2F90021A020D8
:10318000BDE8104000F09CB90021C82000F098F97B
:103190000021A120F4E710BD30B5CC0801F00703F1
:1031A00001259D40EBB2064D05EBC005C808285C23
:1031B0000AB1184302E063EA0000C043285530BD5D
:1031C0004801002070B5424D4FF4005400222146C2
:1031D0002846FFF728FAC820FFF76CF8012221469D
:1031E0002846FFF720FA0021AE2000F069F90021FF
:1031F000084600F065F90021102000F061F9002177
:10320000402000F05DF90021812000F059F90021F3
:10321000CF2000F055F90021A12000F051F9002144
:10322000C82000F04DF90021A62000F049F9002146
:10323000A82000F045F900213F2000F041F90021CD
:10324000D32000F03DF90021084600F039F90021B3
:10325000D52000F035F90021802000F031F900215F
:10326000D92000F02DF90021F12000F029F90021EA
:10327000DA2000F025F90021122000F021F90021C8
:10328000DB2000F01DF90021402000F019F9002199
:10329000202000F015F90021022000F011F9002192
:1032A0008D2000F00DF90021142000F009F9002113
:1032B000A42000F005F90021A62000F001F9FFF795
:1032C00033FFBDE870400021AF2000F0F9B80000E6
:1032D000000801400246012000E05043491EC9B2E7
:1032E000FBD2704770B5114E002400BF04F1B0004E
:1032F000C0B2002100F0E4F80021084600F0E0F838
:103300000021102000F0DCF85FF0000506EBC5009E
:103310000121005D00F0D4F86D1CEDB2802DF5D3D5
:10332000641CE4B2082CE1D370BD00004801002009
:103330002DE9FC4F1C460E4682468B460190082B19
:103340000DD0600700D0012000EBD4006108484395
:10335000C0B28146203AD0B2009000204BE0062057
:10336000F7E7082C13D00C2C18D0102C1BD0182CDD
:1033700044D10098234900EBC00000BF01EB80015D
:10338000002711F80850E80712D00B9A13E00098B4
:103390001D4900EB400001EB4001F1E700981B499B
:1033A00000EB4000EAE71A49009801EB0011E7E75B
:1033B0000B9828B3002231465046FFF7EDFE761CED
:1033C0007F1C6D08FFB2F6B2082FDCD30AF10100B2
:1033D00000F0FF0A082C0AD00199AAEB0100B0EB1B
:1033E000540F04D10BF108008A4600F0FF0B08F1DE
:1033F00001005E46C0B280464845B2D3BDE8FC8FAE
:103400000122D8E74E540008C2470008EA490008E4
:103410005E4E00082DE9F84F0025DDE90A691F46D8
:1034200092468B468046082E00D1022500241CE0DF
:10343000381B401EC1B20A20FFF74CFFBAFBF0F068
:103440000A21B0FBF1F201FB1200CDF8009080B12F
:103450003030C2B205EB560101FB0480C0B23346E6
:103460005946FFF765FF641CE4B2BC42E0D3BDE8F7
:10347000F88F05EB560101FB0480C0B233463022C1
:10348000EEE72DE9F8411E46154688460446079F9B
:103490000BE03346414620460097FFF749FF082ED0
:1034A0000AD004EB5600C4B26D1C2A78A2F12000A9
:1034B0005E28EED9BDE8F881A41DE4B2F4E700006F
:1034C0002DE9F0471D4C054609B1012200E000221C
:1034D00001212046FFF7A7F800220221A04620463E
:1034E000FFF7A1F8164F00244FF400494FF480462F
:1034F000002231463846FFF796F8280601D501220A
:1035000000E0002249463846FFF78DF80122314697
:103510003846FFF788F86806641C050EE4B2082CEC
:10352000E6D30122022144464046FFF77CF82046BC
:10353000BDE8F04701221146FFF775B800080140C9
:103540000010014070477047FFF778B830B593B06E
:1035500028216846FDF759F814210AA8FDF755F807
:10356000002501200F9510951195010412958DE805
:10357000230004904FF4E010CDE9081002240794D2
:103580006846FFF797FA08B172B6FEE70AA90F205E
:1035900081E831004FF48060CDE90D0502210AA8D1
:1035A000FFF7ACF908B172B6FEE74FF40040119096
:1035B0000F940FA8FFF72CF9002801D072B6FEE790
:1035C00013B030BD7047000010B500F011F80028AE
:1035D0000BD0064840F6B8310160142181800121EA
:1035E000C180BDE8104000F019B810BD14000020E3
:1035F00008480268511C0BD041684B1C08D08068F9
:10360000431C05D0044B1A609980D8800020704775
:1036100001207047007000081400002030B585B00C
:10362000002004900090184D0120CDE90250FEF7D3
:10363000F1FE04A96846FEF74FFE040005D000BF66
:10364000FEF79EFE204605B030BD104C00232946F3
:1036500002202268FEF79EFE050008D10A49A288D2
:103660000023091D0220FEF795FE050003D0FEF79A
:1036700087FE2846E7E70449E28800230831022054
:10368000FEF788FE0446DBE7007000081400002007
:103690000149C880FFF7C2BF14000020014988809B
:1036A000FFF7BCBF1400002001490860FFF7B6BF58
:1036B0001400002001680C3151E8002F22F49072B0
:1036C00041E80023002BF5D10168143151E8002FA7
:1036D00022F0010241E80023002BF5D1016B012902
:1036E00009D101680C3151E8002F22F0100241E8A5
:1036F0000023002BF5D1202180F842100021016326
:1037000070470000F0B5324D93B0287800283CD0C7
:1037100030A13248FCF748FF314E002420B931A1D6
:103720002E48FCF741FF08B134702DE030A12B4842
:10373000FCF792FF4FF6FF7748B311AA2EA1274856
:10374000FCF76EFE012835D011AA2DA12348FCF705
:1037500067FE012834D011AA2BA12048FCF760FE97
:103760000128E1D1119880B2FFF792FF119A28A1A8
:1037700001A8FCF755FD01A8FCF728FF82B23B46E3
:1037800001A92648FFF7ACFB2C7013B0F0BD24480C
:10379000C18800918388026822A101A8FCF740FD3E
:1037A00001A8FCF713FF82B23B4601A91B48FFF7B3
:1037B00097FBB9E71198FFF777FF20A1119AD7E798
:1037C000119880B2FFF76AFF20A1119AD0E700009C
:1037D00001000020434F4E4E454354000401002099
:1037E00000000020444953434F4E4E4543540000CF
:1037F00072656164000000007475723A256C750092
:10380000746D703A256C750070683A256C7500000F
:1038100070683A256C75204F4B0D0A00BC000020E3
:10382000140000207475723A25642C746D703A256A
:10383000642C70683A25640D0A0000007475723AB1
:10384000256C75204F4B0D0A00000000746D703A16
:10385000256C75204F4B0D0A0000000070B5044622
:1038600000680169E26821F4405111430161216956
:10387000A0680843616908432168CA6841F20C6383
:103880009A430243CA6020684169A26921F44071E9
:10389000114341611E492068884202D1FFF7D4F8E4
:1038A00001E0FFF7C1F800EBC00101EB0012606816
:1038B00064218000B2FBF0F3B3FBF1F36FF0180664
:1038C0007343B2FBF0F5B2FBF0F605EB8305322350
:1038D00003EB0515B5FBF1F5B6FBF1F605F0F005C8
:1038E00005EB0615B2FBF0F6B2FBF0F0B0FBF1F021
:1038F0006FF01802504306EB800003EB0010B0FBA2
:10390000F1F0216800F00F002844886070BD0000CD
:10391000003801402DE9F843984617460D46044605
:10392000089E24E0701C22D0FEF782FEA0EB080067
:10393000B0421AD8CEB12068C168490717D5802D8A
:1039400015D0402D13D00168C94309070FD4016871
:103950000025406800902046FFF7ACFE0820606418
:1039600084F840500120BDE8F8830320FBE720687D
:10397000006835EA000004D00020B842D2D0002010
:10398000F1E70120F9E70000154910B50B68186848
:10399000144A04074FF0000007D0107050701C68E4
:1039A00024F00F041C600B685B6809680B689B06B9
:1039B00010D549680C4CCBB20A2B05D00D2B09D081
:1039C00011781F2907D304E0117811B16054012147
:1039D0005170107010BD6354491C117010BD00006F
:1039E000BC0000200000002004010020FEE7490088
:1039F00050EAC12018BF04204A0D18BF40F0010052
:103A000040F2FF72B2EB515F08BF40F002000128A4
:103A100008BF052070470907090E002804DB00F1E4
:103A2000E02080F80014704700F00F0000F1E02063
:103A300080F8141D704730380A2801D201207047E1
:103A400000207047002100E0491CB1EBC00FFBD300
:103A50007047000086B0FEF7F9FDFFF777FDFFF72E
:103A6000E1FAFFF743FBFFF78DFAFFF7B3FAFFF731
:103A7000A9FB0020FFF76EFB0020FFF777FBFFF7A5
:103A800053FBFFF7A1FD8F480068C16841F020019A
:103A9000C1600124002110238BA208460094FFF787
:103AA000F0FC10238BA2142100200094FFF7E9FC06
:103AB00010238AA2282100200094FFF7E2FCFFF7E0
:103AC00011FCDFF81C924FF00A0A00BFFDF79CFFC3
:103AD00001241025CDE9005480460246042300212C
:103AE0005820FFF797FCFEF726F80746484507D908
:103AF00010237CA2142130200094FFF7C2FC39E08F
:103B0000794900F0D1FC00F033FC06B2002E4FF0F2
:103B10001003009407DA2D2214213020FFF708FC4F
:103B2000704206B204E0202214213020FFF700FC8E
:103B300096FBFAF2CDE90054022314213820FFF756
:103B400069FC10232E22142148200094FFF7F0FB7B
:103B500096FBFAF10AFB1162CDE90054012314210E
:103B60005020FFF757FC10234322142158200094C3
:103B7000FFF7DEFBFDF75EFF00F04EFC00F0BAFB46
:103B80004FF06632594B00F0B7FA0022584B00F064
:103B90005BF90022574B00F0AFFA00F023F983469F
:103BA000514900F081FC00F0FFFB86B2B6FBFAF24F
:103BB000CDE90054012328212020FFF72BFC2821E8
:103BC00010232E2208460094FFF7B2FBB6FBFAF151
:103BD0000AFB1162CDE90054012328213020FFF7B0
:103BE00019FCFFF77FFB584600F084FB06460C46A5
:103BF0003846019100F07EFBCDF800800296CDE9B9
:103C0000034105460B462A463BA14448FCF708FB06
:103C10004248FCF7DBFC82B24FF6FF733F4929486C
:103C2000FFF75EF93E4C4046236843450ED90246F5
:103C30003CA13A48FCF7F4FA3848FCF7C7FC82B2DA
:103C40004FF6FF7335491F48FFF74AF94F4518D81B
:103C5000A08800F0E1FB394600F0F2FC11D2A08808
:103C600000902A46049B38A12C48FCF7D9FA2B482F
:103C7000FCF7ACFC82B24FF6FF7328491148FFF7FE
:103C80002FF9E08800F0C8FB594600F0D9FC11D2AA
:103C9000E2880092019B324635A12048FCF7C0FA29
:103CA0001E48FCF793FC82B24FF6FF731B49054890
:103CB000FFF716F9FFF726FD40F6B830FEF7FAFADF
:103CC00004E70000BC0000205475726269646974E6
:103CD000793A000054656D703A00000050483A008F
:103CE0000000C8C2457272000000204166660A40AA
:103CF00000FEAF400000144054656D703A252E312F
:103D000066432C5475726269646974793A25642C2F
:103D100050483A252E31660D0A0000001C00002094
:103D200014000020414C41524D3A20547572626992
:103D300064697479206C6F7720282564203C2025E5
:103D400064290D0A00000000414C41524D3A2054B4
:103D5000656D7065726174757265206C6F7720286F
:103D6000252E3166203C202564290D0A0000000024
:103D7000414C41524D3A205048206C6F7720282505
:103D80002E3166203C202564290D0A0010B500293B
:103D90000AD00878002807D005487844FCF75CFC76
:103DA000002801D0002010BD0248784410BD00005A
:103DB000EE280000E628000010B500290AD0087897
:103DC000002807D005487844FCF746FC002801D0BD
:103DD000002010BD0248784410BD0000DE2800001D
:103DE000D628000021F00042A2F16052B2F5801FF7
:103DF00001F0004328BFD2F17F6C0BD95FEA001CB1
:103E000043EAC20242EB507018BF704728BF20F04F
:103E100001007047B2F5801FBCBF184670474FEADB
:103E2000410C1CF5001F02D2084600F004BC70B51E
:103E300000F00CFA00000089FFF7F6BF4FF00040D9
:103E4000A0F58000704700002DE9C04130B4DFF8D4
:103E5000A0C23CEA111418BF3CEA131400F0EC8035
:103E600081EA03051CEA111444EAD57418BF1CEA60
:103E7000131500F0C780A4EB05044FF0004545EA98
:103E8000C12145EAC32341EA505143EA525304F1A8
:103E90007F74994204F500344FEAC0204FEAC222F1
:103EA00008BF904200F09C804FEA13650FF2401665
:103EB000765D4FEA134506FB05F7C7F1807706FBF1
:103EC00007F74FEAD737A7FB03687642C8F5803873
:103ED000A7FB06CE38BFA8F1010807FB08E64FF0A4
:103EE000000EA6FB028CE6FB03CEDCF1000CCEF14B
:103EF000004E38BFAEF1010EA6FB0C584FF0000784
:103F00004FF00005E6FB0E87A1FB08C6A0FB07CE1D
:103F100016EB0E0645F10005E1FB076515F1E04ED5
:103F20007EBFA4F580345FEA46066D4116F1800736
:103F300045F100054FEA17274FEA066647EA05678D
:103F4000A6F1DE46B6F1805F4FEA15251FD9384647
:103F500024F0010C05EBC471BCF1FE6F01EB0C11F8
:103F600002D8F0BCBDE8008124425CBF01F5801E90
:103F70009EEAC47F02D4F0BCBDE80081244238D45C
:103F8000F0BCA1F1C041BDE8004100F0ADB94FEA7D
:103F9000D22242EA43524FEAD323A7FB02864FEADA
:103FA000D02040EA415007FB03661EEA0E0F4FEA9D
:103FB000D12105FB026658BFA6EB0056B6EB0056B2
:103FC0004FEA520E4EEAC37E18EB0E0E56EB530E1E
:103FD000BDD518EB02085E417F1C55F10005B6E720
:103FE0004FF480154FF000074FF000064FF0000827
:103FF000ADE7F0BC4FF0000001F1C04101F000411D
:10400000BDE8008111EA0C1F0CEA131500D00CE08A
:1040100013EA0C1F00F025804FF00000F0BC81EA8D
:10402000030101F00041BDE80081F0BCBDE80041A2
:1040300081EA030100F058B9F0BCBDE8004170B559
:1040400000F004F9097EFC3E00F007B881EA0301A4
:104050004FF0000001F00041704781EA030100F0D9
:1040600043B9F0BCBDE800414FF000002149704762
:10407000FFFDFBF9F7F5F4F2F0EEEDEBE9E8E6E42D
:10408000E3E1E0DEDDDBDAD8D7D5D4D3D1D0CFCDB4
:10409000CCCBCAC8C7C6C5C4C2C1C0BFBEBDBCBBED
:1040A000BAB9B8B7B6B5B4B3B2B1B0AFAEADACABE8
:1040B000AAA9A8A8A7A6A5A4A3A3A2A1A09F9F9EC2
:1040C0009D9C9C9B9A999998979796959594939374
:1040D000929191908F8F8E8E8D8C8C8B8B8A89890B
:1040E000888887878685858484838382828181808E
:1040F0000000FF070000F87FDFF848C170B51CEA38
:10410000111E1EBF1CEA13159EEA0C0F95EA0C0F38
:1041100000F06F8081EA030423EA4C134EEAD47E58
:1041200021EA4C1141F4801143F48013AE44A1FB09
:10413000024CA0FB0365AEF17F7E361955EB0C05F2
:10414000A1FB034C4CF10003A0FB021C16EB0C0678
:10415000654153F10003094218BF46F0010613F40C
:10416000007F0BD14FEA03314FEA0530340341EAB7
:10417000155140EA16506FF003020AE04FEAC321DE
:104180004FEAC520F40241EA555140EA56506FF01B
:10419000020202EB2E4201EB025585EACE710AD0F3
:1041A0005FEA440C18BF24F0004450F1000041F1D4
:1041B000000120EAD47040F2FE7C624500D270BD5E
:1041C000A84214BF4FF080444FF04044002E08BF77
:1041D0000024BEF1806FA8BFA1F1C041BDE87040CE
:1041E00080F282804FF0000001F1C04101F00041F7
:1041F00070479EEA0C0F0CEA131518BF95EA0C0FD6
:1042000006D04FF0000081EA030E0EF0004170BDB1
:1042100000F01CF88900013E00F007B800F009B872
:104220004FEA430C5FEA5C5C08D081EA030100F0CE
:104230005BB84FEA410C5FEA5C5CF6D14FF00000DE
:10424000014970470000FF070000F87F0EF1020EE1
:104250002EF0030E5EF8046B364205D4012A43EBC0
:10426000030515F5001F12D8012841EB010C1CF5C0
:10427000001F0CD80ED14FEAD17C15F5001F0CEBB6
:104280004C0C0CF1020C08BF4CEBD37C04E04FF05B
:10429000080C01E04FEAD37C0CEB4C0526FA05F63E
:1042A00006F00706B6F1040C06D20EEB860CBDE84C
:1042B00070404CF0010C6047DFE80CF0090B020283
:1042C0004FF000414FF00000A1F5002170BD1946EC
:1042D0001046012851EB010418BFD4F5001484BF27
:1042E000002001F0004170BD0808A0F500114FEA60
:1042F0003101704743004FEAD30C4FEA3C0C434076
:104300001FBF40070CF1605113F0FE4F70471CF0C7
:10431000006F03D100200CF0004170470CF0004307
:1043200043EA507010B540EACC0000F03EF900BFFF
:10433000000000924FEA0001FFF7D6BF4FF00041A6
:104340004FF00000A1F5002170470000014800F087
:10435000AAB900BF0000C07F401058BFC0F1404064
:10436000491058BFC1F140418142EFF300807047CE
:1043700041000B0ED3F19E0208D950F400034FEA1E
:10438000032323FA02F048BF4042704710B500F003
:104390000CF900BF49922480002070476FF0004262
:1043A00082EA200070470000C10DD1F19E0206DBB9
:1043B0004FEA002343F0004323FA02F07047004223
:1043C00007D54FEA4001B1F1FE4F02D24FF0000095
:1043D000704710B500F0E9F849922480002070473A
:1043E0006FEA20007047000010F0004148BF4042D3
:1043F000B0FA80F310FA03F2C3F19D030BD051EA37
:10440000C35101EB1220530638BF704700F1010081
:1044100008BF20F001007047B0FA80F310FA03F2F1
:10442000C3F19D030AD0D90501EB1220530638BF12
:10443000704700F1010008BF20F001007047000044
:1044400050EA010C00F113801CF5000F58BFBCF5B9
:10445000000F01D48842704707D710F5000F58BFEE
:1044600011F5000F15D488427047894270471CF53A
:10447000000F04D5BCF5000FF7D5814270474FF00F
:10448000807C1CEB400F38BF1CEB410F01D28142F6
:10449000704710B500F089F8922449004FF00050A1
:1044A0004FF08051FFF758BF4FF47F0C1CEAD01239
:1044B0001EBF1CEAD11392EA0C0F93EA0C0F00F016
:1044C000478090EA010F48BF42F480724FF0004CE1
:1044D0004CEA00204CEA012102EB0302A0FB01138D
:1044E000A2F50002002918BF43F001035B0028BFBA
:1044F0004FEA330342EB22425FEA132C4CEBC250EB
:104500002EBFBCEB436FB2F57C0F70474FEA036CD4
:10451000BCF1004F08BF20F00100B2F57C0F38BF9E
:1045200070470BD582F0FF0212F5803FC8BF70477D
:1045300000F1C040D8BF00F00040704700F5000C0B
:104540005FEA4C0C48BF7047B0F1C04000F073B850
:1045500090EA010F0CEAD11348BF42F48072624521
:1045600038BF634504D280EA010000F00040704784
:1045700010B500F01AF800BF8900013E00F007B83E
:1045800000F009B85FEA410C5FEA1C6C08D080EAD1
:10459000010000F050B85FEA400C5FEA1C6CF6D1F5
:1045A0004FF00040A0F5800070470EF1020E2EF093
:1045B000030E5EF8044B244204D44FEA4102B2F1E8
:1045C0007F4F11D84FEA4003B3F17F4F0CD80ED183
:1045D0004FEAD07CB2F17F4F0CEB4C0C0CF1020C8B
:1045E00008BF4CEBD17C04E04FF0080C01E04FEA2F
:1045F000D17C0CEB4C0324FA03F404F00704B4F16F
:10460000040C06D20EEB840CBDE810404CF0010CFB
:104610006047DFE80CF0070802024FF00040A0F509
:10462000800010BD0846420018BFD2F1807288BFDA
:1046300000F0004010BDFF2141EAD050C005704796
:1046400051EA000C00F113801CF5000F58BFBCF5B7
:10465000000F01D48142704707D711F5000F58BFF2
:1046600010F5000F15D481427047894270471CF540
:10467000000F04D5BCF5000FF7D5884270474FF006
:10468000807C1CEB410F38BF1CEB400F01D28842ED
:10469000704780EA010081EA000180EA0100FFF72B
:1046A000F8BEFCF74EB90CF00F03092B08BF082029
:1046B00000F051800A2B0BD0082B18BF704708BFA1
:1046C0001CF0400F0AD04FF000004FF0000170477F
:1046D0001CF0400F18BF4FF0004070471CF0100F47
:1046E00008D020F0704300F07F4242EAD3014FEA45
:1046F0004370704700F0604021F07F4242EA0002C0
:1047000001F07F4040EA727070474FF0FF0212EAFA
:10471000D0521CBF92F0FF038B42C2BFD14200EBCC
:10472000C1507047002A0AD0002B0BD0002900F09E
:104730000040A4BF40F0FE4040F40000704700F08D
:104740000040704743024FF00B0C18BF4CF0806CD8
:104750007FF4FCAD70471CF4801F11D01CF4E02FD7
:1047600003D06FEACC31490070474FF04050EFF36F
:10477000008222F0704242EA000282F30088704711
:104780004FF0000070470102020304050607080904
:104790000A0B0C0D0E0F1010010202030405060790
:1047A00008090A0B0C0D0E0F10100000000000008D
:1047B00000000102030406070809000000000102CE
:1047C00003040000000000000000002F00000000B3
:1047D0000700070000147F147F1400242A7F2A1288
:1047E0000062640813230036495522500000050377
:1047F000000000001C224100000041221C000014A7
:10480000083E08140008083E0808000000A06000E8
:104810000008080808080000606000000020100878
:104820000402003E5149453E0000427F40000042E4
:1048300061514946002141454B31001814127F1047
:10484000002745454539003C4A4949300001710976
:10485000050300364949493600064949291E00002A
:1048600036360000000056360000000814224100D1
:104870000014141414140000412214080002015101
:10488000090600324959513E007C1211127C007F0A
:1048900049494936003E41414122007F4141221CA5
:1048A000007F49494941007F09090901003E41490A
:1048B000497A007F0808087F0000417F41000020FE
:1048C00040413F01007F08142241007F40404040AA
:1048D000007F020C027F007F0408107F003E4141F0
:1048E000413E007F09090906003E4151215E007FDB
:1048F000091929460046494949310001017F010152
:10490000003F4040403F001F2040201F003F4038F4
:10491000403F006314081463000708700807006133
:104920005149454300007F41410000552A552A5511
:10493000000041417F0000040201020400404040A9
:104940004040000001020400002054545478007FCD
:104950004844443800384444442000384444487FA4
:1049600000385454541800087E0901020018A4A409
:10497000A47C007F080404780000447D40000040CF
:1049800080847D00007F102844000000417F4000AB
:10499000007C04180478007C08040478003844443F
:1049A000443800FC242424180018242418FC007C1B
:1049B0000804040800485454542000043F44402094
:1049C000003C4040207C001C2040201C003C40302B
:1049D000403C004428102844001CA0A0A07C0044B7
:1049E00064544C4414141414141400000000000007
:1049F0000000000000000000FC00000000000200B9
:104A00000000000C020C020000000000000090D02A
:104A1000BCD0BC900003000300001824FE448C00AE
:104A20000302070201001824D8B04C8000030001E3
:104A30000201C038E438E000010202010202080667
:104A400000000000000000000000000000F8040268
:104A5000000000010204000204F80000000402014A
:104A600000009060F860900000000100000020202D
:104A7000FC202000000001000000000000000000F9
:104A80000806000000002020202020000000000078
:104A90000000000000000000000200000000008094
:104AA000601C0200040300000000F8040404F80085
:104AB0000102020201000008FC00000000020302E3
:104AC00000001884442418000302020202000804B3
:104AD0002424D80001020202010040B088FC8000BA
:104AE0000000000302003C242424C400010202024E
:104AF0000100F824242CC0000102020201000C0471
:104B0000E41C0400000003000000D8242424D80082
:104B100001020202010038444444F800000302028A
:104B20000100000010000000000002000000000072
:104B30002000000000000600000000205088040251
:104B40000000000001029090909090000000000092
:104B50000000000204885020000201000000180438
:104B6000C4241800000002000000F804E494F800D7
:104B700001020202020000E09CF08000020300003B
:104B8000030204FC2424D800020302020100F804FA
:104B900004040C0001020202010004FC0404F800F9
:104BA00002030202010004FC24740C00020302024E
:104BB000030004FC24740C00020302000000F0084F
:104BC0000444CC4000010202010004FC2020FC044B
:104BD0000203000003020404FC04040002020302B6
:104BE0000200000404FC040406040403000004FCA6
:104BF00024D00C0402030200030204FC04000000A1
:104C0000020302020203FC3CC03CFC000300030060
:104C1000030004FC30C4FC04020302000300F80497
:104C20000404F80001020202010004FC242418001C
:104C3000020302000000F8848404F8000102020765
:104C4000050004FC246498000203020003021824F7
:104C500024448C000302020201000C04FC040C003A
:104C600000020302000004FC0000FC040001020238
:104C70000100047C80E01C040000030000001CE034
:104C80003CE01C00000300030000049C609C040046
:104C9000020300030200041CE01C040000020302E3
:104CA00000000C84641C04000203020203000000E4
:104CB000FE020200000007040400000E30C00000E5
:104CC000000000010200000202FE000000040407D0
:104CD00000000004020400000000000000000000CA
:104CE0000000000008080808080800000200000092
:104CF0000000000000000040A0A0C000000102026F
:104D0000030204FC2020C00000030202010000C0D6
:104D10002020600000010202020000C02024FC00EC
:104D200000010202030200C0A0A0C00000010202B4
:104D300002000020F82424040002030202000040C4
:104D4000A0A0602000070A0A0A0404FC2020C0007A
:104D50000203020003020020E4000000000203023C
:104D60000000000020E4000008080807000004FC20
:104D700080E020200203020003020404FC00000083
:104D8000020203020200E020E020C0000300030052
:104D9000030020E02020C00002030200030200C044
:104DA0002020C00000010202010020E02020C000FD
:104DB000080F0A02010000C02020E0000001020AE2
:104DC0000F0820E0402020000203020000000060E5
:104DD000A0A020000002020203000020F820000032
:104DE00000000102020020E00020E00000010202B9
:104DF000030220E0208060200000030100006080AA
:104E0000E08060000003000300002060806020005C
:104E100002030003020020E0208060200808070150
:104E200000000020A0602000000203020200000039
:104E300020DE0200000000070400000000FF000068
:104E40000000000F00000002DE2000000004070048
:104E50000000020102040402000000000000000043
:104E60000000000000000000000000000000000042
:104E700000F80000000000000033300000000010C7
:104E80000C06100C0600000000000000000040C0EE
:104E90007840C0784000043F04043F0404000070E0
:104EA00088FC08300000001820FF211E0000F008D8
:104EB000F000E018000000211C031E211E0000F07D
:104EC0000888700000001E212324192721101016C5
:104ED0000E000000000000000000000000000000C4
:104EE00000E0180402000000000718204000000243
:104EF0000418E000000000402018070000004040B7
:104F000080F0804040000202010F01020200000018
:104F100000F0000000000101011F0101010000007C
:104F200000000000000080B07000000000000000E1
:104F3000000000000000000101010101010100006A
:104F40000000000000000030300000000000000001
:104F5000000080601804006018060100000000E0F6
:104F600010080810E000000F102020100F000010A3
:104F700010F8000000000020203F202000000070FA
:104F800008080888700000302824222130000030F2
:104F90000888884830000018202020110E000000EA
:104FA000C02010F8000000070424243F240000F86B
:104FB0000888880808000019212020110E0000E050
:104FC000108888180000000F112020110E000038F2
:104FD0000808C83808000000003F0000000000700A
:104FE000880808887000001C222121221C0000E093
:104FF00010080810E0000000312222110F0000000C
:1050000000C0C000000000000030300000000000C0
:105010000080000000000000806000000000000030
:1050200080402010080000010204081020004040C9
:10503000404040404000040404040404040000080C
:1050400010204080000000201008040201000070C1
:1050500048080808F0000000003036010000C030A9
:10506000C828E810E0000718272423140B000000CC
:10507000C038E0000000203C23020227382008F856
:10508000888888700000203F202020110E00C0304A
:10509000080808083800071820202010080008F821
:1050A00008080810E000203F202020100F0008F81A
:1050B0008888E8081000203F20202320180008F8E6
:1050C0008888E8081000203F200003000000C0305E
:1050D00008080838000007182020221E020008F8DF
:1050E00008000008F808203F210101213F200008A6
:1050F00008F8080800000020203F202000000000E1
:105100000808F8080800C08080807F00000008F8C8
:1051100088C028180800203F20012638200008F801
:10512000080000000000203F20202020300008F868
:10513000F800F8F80800203F003F003F200008F882
:1051400030C00008F808203F200007183F00E0109A
:1051500008080810E0000F10202020100F0008F8A9
:1051600008080808F000203F210101010000E010BC
:1051700008080810E0000F18242438504F0008F8E1
:10518000888888887000203F2000030C3020007041
:105190008808080838000038202121221C0018083F
:1051A00008F8080818000000203F2000000008F858
:1051B00008000008F808001F202020201F000878A1
:1051C000880000C83808000007380E010000F80801
:1051D00000F80008F800033C0700073C030008182B
:1051E00068808068180820302C03032C3020083891
:1051F000C800C83808000000203F20000000100848
:105200000808C8380800203826212020180000008F
:1052100000FE020202000000007F40404000000C3F
:1052200030C000000000000000010638C00000028D
:105230000202FE000000004040407F00000000002D
:105240000402020204000000000000000000000050
:10525000000000000000808080808080808000024C
:105260000204000000000000000000000000000038
:105270008080808000000019242222223F2008F82C
:10528000008080000000003F112020110E0000006F
:10529000008080800000000E1120202011000000FE
:1052A00000808088F800000E112020103F200000B0
:1052B000808080800000001F2222222213000080B4
:1052C00080F0888888180020203F202000000000FF
:1052D000808080808000006B94949493600008F834
:1052E000008080800000203F210000203F200080BF
:1052F0009898000000000020203F202000000000BF
:1053000000809898000000C08080807F000008F82E
:10531000000080808000203F24022D302000000803
:1053200008F8000000000020203F202000008080BE
:10533000808080808000203F20003F20003F8080D0
:10534000008080800000203F210000203F200000DE
:10535000808080800000001F202020201F0080808F
:1053600000808000000080FFA12020110E000000BE
:10537000008080808000000E112020A0FF808080AF
:1053800080008080800020203F212000010000005C
:105390008080808080000033242424241900008031
:1053A00080E0808000000000001F2020000080803E
:1053B000000000808000001F202020103F208080FF
:1053C00080000080808000010E300806010080808F
:1053D0000080008080800F300C030C300F000080B4
:1053E0008000808080000020312E0E3120008080DF
:1053F00080000080808080818E701806010000800F
:105400008080808080000021302C2221300000002C
:105410000000807C020200000000003F40400000CD
:105420000000FF00000000000000FF00000000027C
:10543000027C800000000040403F000000000006A9
:10544000010102020404000000000000000000004E
:10545000000000000000000000000000000000004C
:10546000000000000000000000000000000000003C
:1054700000000000000000F0F0F00000000000005C
:10548000000000017F010000000000000000001C7F
:105490001C1C0000000000008060301C8C60301C70
:1054A0000C000000000000000000000000000000F0
:1054B00000000000000000000000000000E000000C
:1054C000000000E000000086E69F86868686E69F54
:1054D000860000011F01010101011F010100000000
:1054E00080C06020F820E0C00000000003070C1816
:1054F000FF70E18100000000070F10107F100F0700
:1055000000008060206080000000E02000000F307C
:1055100020309F70DC371030C0000000100E0300F8
:105520000718101807000000C02020E0C00000008D
:10553000000080E01F38E88703C43C040000070F28
:105540001810100B070D1010080000808C4C38004C
:10555000000000000000000000000000000000004B
:10556000000000000000000000000000000000003B
:105570000000000080E0300804000000000000FE91
:10558000FF0100000000000000000000030F1820D1
:10559000400000040830E08000000000000000002F
:1055A000000001FFFE0000000000004020180F0373
:1055B000000000000000000000000000C00000002B
:1055C0000000004266663C18FF183C666642000018
:1055D00000000000030000000000000000000000C8
:1055E000800000000000001010101010FF101010BC
:1055F0001010000000000000030000000000000088
:10560000000000000000000000000000000000009A
:1056100000000000000000808C4C380000000000FA
:10562000000000000000000000000000000000106A
:1056300010101010101010101000000000000000DA
:10564000000000000000000000000000000000005A
:10565000000000000000000000000000000000004A
:105660001C1C1C00000000000000000000000000E6
:105670000000E0380C000000000080701C030000F7
:1056800000000060380E0100000000000000000073
:1056900080C060202060C080000000FEFF0100008C
:1056A000000001FFFE000001070E181010180E0781
:1056B00001000000808080C0E000000000000000C9
:1056C000000000FFFF000000000000001010101F8D
:1056D0001F10101000000080402020202060C0809B
:1056E000000000030300804020381F070000001C5A
:1056F0001A1918181818181F00000080C020202040
:1057000060C080000000000303001010182FE78025
:10571000000000070F10101010180F070000000005
:1057200000000000C0E0F000000000C0B0888681EA
:1057300080FFFF808000000000000010101F1F107D
:1057400010000000E06060606060606000000000C9
:105750003F1008080818F0E0000000070B101010B8
:10576000101C0F030000000080C040202020E0C07B
:10577000000000FCFF211008080818F0E0000001FC
:10578000070C18101010080F03000000C0E0606044
:10579000606060E06000000003000000E0180700A7
:1057A000000000000000001F1F000000000000803B
:1057B000C0602020202060C080000087EF2C1818D7
:1057C000303068CF830000070F0810101010180F3A
:1057D00007000000C0C020202020C0800000001F63
:1057E0003F604040402010FFFE0000000C1C1010E5
:1057F00010080F030000000000000000000000007F
:10580000000000000000000E0E0E0000000000006E
:105810000000001C1C1C0000000000000000000034
:1058200000000000000000000000000C0C00000060
:1058300000000000000000583800000000000000D8
:10584000000000000080402010000000102844826A
:105850000100000000000000000000000102040838
:1058600010000000000000000000000000000084A4
:105870008484848484848484840000000000000084
:105880000000000000000000102040800000000028
:105890000000000000000000018244281000000009
:1058A0001008040201000000000000C020201010B9
:1058B000101030E0C0000003030000F010080C07D7
:1058C0000300000000001C1C1C0000000000000081
:1058D00000C0406020202040C00000FCFF01F00E0E
:1058E00003C1FE03807F0001070E0811111011098A
:1058F00004020000000080E0E00000000000000062
:10590000807C4340477FF880000010181F10000083
:105910000000131F1C1020E0E02020202060C08029
:10592000000000FFFF10101010182FE78000101F5C
:105930001F1010101010180F0700000080C040202A
:1059400020202060E00000FCFF01000000000000BB
:1059500001000001070E181010100804030020E0D9
:10596000E02020202040C080000000FFFF00000059
:10597000000001FFFE00101F1F10101018080E0776
:10598000010020E0E020202020202060800000FF97
:10599000FF101010107C00000000101F1F101010CE
:1059A00010101018060020E0E02020202020606069
:1059B000800000FFFF101010107C00000100101F7D
:1059C0001F100000000000000000000080C06020E8
:1059D000202040E0000000FCFF0100004040C0C16A
:1059E00040400001070E181010100F0F000020E0BB
:1059F000E0200000000020E0E02000FFFF10101079
:105A0000101010FFFF00101F1F1000000000101FDB
:105A10001F100000202020E0E020202000000000D7
:105A2000000000FFFF000000000000001010101F29
:105A30001F101010000000000000202020E0E020D7
:105A4000202000000000000000FFFF0000000060B8
:105A5000E0808080C07F3F00000020E0E020000068
:105A600020A06020200000FFFF30187CE3C0000071
:105A70000000101F1F10000001131F1C181020E051
:105A8000E020000000000000000000FFFF00000018
:105A9000000000000000101F1F1010101010101840
:105AA000060020E0E0E000000000E0E0E02000FF71
:105AB000013FFEC0E01E01FFFF00101F1000031F8A
:105AC0000300101F1F1020E0E0C0000000000020B5
:105AD000E02000FF0003071C78E08000FF00101F9B
