:020000040800F2
:10000000980B0020890100086B160008C514000831
:1000100069160008BD030008C51B000800000000A9
:100020000000000000000000000000008B1A000823
:100030004905000800000000891A00088D1A000810
:10004000A3010008A3010008A3010008A301000800
:10005000A3010008A3010008A3010008A3010008F0
:10006000A3010008A3010008A3010008A3010008E0
:10007000A3010008A3010008A3010008A3010008D0
:10008000A3010008A3010008A3010008A3010008C0
:10009000A3010008A3010008A3010008A3010008B0
:1000A000A3010008A3010008A3010008A3010008A0
:1000B000A3010008A3010008A3010008A301000890
:1000C000A3010008A3010008A3010008A301000880
:1000D000A3010008A3010008A3010008A301000870
:1000E000A3010008A3010008A301000800F002F822
:1000F00000F03AF80AA090E8000C82448344AAF188
:100100000107DA4501D100F02FF8AFF2090EBAE885
:100110000F0013F0010F18BFFB1A43F0010318473B
:1001200098430000B8430000103A24BF78C878C153
:10013000FAD8520724BF30C830C144BF04680C60ED
:10014000704700000023002400250026103A28BF35
:1001500078C1FBD8520728BF30C148BF0B60704739
:100160001FB51FBD10B510BD00F058F81146FFF7C0
:10017000F7FF01F03FFD00F076F803B4FFF7F2FF60
:1001800003BC00F07DF8000009488047094800479B
:10019000FEE7FEE7FEE7FEE7FEE7FEE7FEE7FEE737
:1001A000FEE7FEE704480549054A064B7047000094
:1001B000091B0008ED00000898050020980B00209E
:1001C00098070020980700204FF0000200B5134662
:1001D00094469646203922BFA0E80C50A0E80C5067
:1001E000B1F12001BFF4F7AF090728BFA0E80C5018
:1001F00048BF0CC05DF804EB890028BF40F8042B11
:1002000008BF704748BF20F8022B11F0804F18BF7D
:1002100000F8012B7047704770477047754600F033
:100220002BF8AE4605006946534620F00700854688
:1002300018B020B5FFF7B6FFBDE820404FF000062C
:100240004FF000074FF000084FF0000B21F00701BE
:10025000AC46ACE8C009ACE8C009ACE8C009ACE801
:10026000C0098D46704710B50446AFF300802046A4
:10027000BDE81040FFF781BF0048704738050020F7
:1002800001491820ABBEFEE72600020070470000BF
:1002900010B50024084800F04DFB6421064800F02A
:1002A000ABFA18B9044800F0D1F90446024800F04E
:1002B000A1FB204610BD00001000002010B5002456
:1002C000084800F037FB6421064800F095FA18B999
:1002D000044800F0BBF90446024800F08BFB2046BE
:1002E00010BD00004000002070B504460068816821
:1002F000C943C90717D1816821F00101816000F06D
:100300009FFC05460AE000BF00F09AFC401B022853
:1003100004D920688068C043C00706D02068806880
:10032000C043C007F0D0002070BDA06A40F01000AC
:10033000A062E06A40F00100E062012070BD0000B0
:10034000F8B500260446009600688168C943C907CD
:100350002DD0816841F0010181601648164900687E
:10036000B0FBF1F000E0401E00900028FBD100F04F
:1003700067FC054616E000BF00F062FC401B022847
:1003800010D920688068C043C0070BD0A06A40F035
:100390001000A062E06A40F00100E06284F824608E
:1003A0000120F8BD20688068C043C007E4D1002068
:1003B000F8BD00000C00002040420F00FEE710B521
:1003C00000F02CF8CC2000F0B1F8442000F0AEF89A
:1003D00000F024F8CC2000F0A9F8BE2000F0A6F828
:1003E00000F06AF8044600F067F844EA002000B222
:1003F0006FF00304002809DAC0F30E0001F0E6FFF5
:10040000214602F0F5F880F0004010BD01F0C6FF73
:100410002146BDE8104002F0EBB8000070B5124C68
:1004200001222021204600F006FC0A2001F0DBFB1F
:1004300000222021204600F0FEFB4FF47075284674
:1004400001F0D1FB01222021204600F0F4FB3C20EA
:1004500001F0C9FB2021204600F0E8FB2846BDE85A
:10046000704001F0C0BB0000000C014070B5114DA0
:1004700000222021284600F0DEFB012001F0B3FB22
:1004800001222021284600F0D6FB092001F0ABFB19
:100490002021284600F0CAFB0446642001F0A3FB9B
:1004A00001222021284600F0C6FB042001F09BFB1E
:1004B000204670BD000C014070B50024254664083C
:1004C000FFF7D4FF08B144F080046D1CEDB2082D95
:1004D000F5D301222021024800F0ADFB204670BD7B
:1004E000000C014070B5104D044600222021284622
:1004F00000F0A1FB012001F076FBE00701D0012212
:1005000000E000222021284600F095FB762001F033
:100510006AFB01222021284600F08DFBBDE87040D7
:10052000042001F060BB0000000C014070B50546DE
:100530005FF0000405F00100FFF7D4FF641C6D08B4
:10054000E4B2082CF6D370BD704772B6FEE7000027
:10055000F8B50024009490F824202546012A12D0F2
:10056000012280F824204A681F23072A0DD206683A
:10057000776B521E02EB820293409F430B689340BD
:100580001F43776319E00220F8BD06680D2A0AD2DE
:10059000376BD21F02EB820293409F430B6893405C
:1005A0001F43376309E0F76A0D3A02EB820293407A
:1005B0009F430B6893401F43F7620A68072306684E
:1005C0000A2A0AD3F7680A3A02EB420293409F4391
:1005D0008B6893401F43F76008E0376902EB4202E3
:1005E00093409F438B6893401F4337610A68102AEA
:1005F00001D0112A20D1124B02689A4217D1936878
:100600001B0219D4936843F400039360096810290E
:1006100012D10C490C4A0968B1FBF2F101EB8101DE
:10062000490000E0491E00910029FBD104E0816AE5
:1006300041F020018162012480F824502046F8BD59
:10064000002401400C00002040420F000068C06CF4
:10065000704700002DE9F0414FF0000704003D46CF
:100660007ED0A06A002628B9E66284F8246020467D
:1006700000F07EF82046FFF737FEA16AC90600D4D5
:1006800020B1A06A40F01000A06269E0A16A21F4E4
:10069000885141F00201A1626268E169237B0A434B
:1006A00047EA43010A43A1684FF48077B94209D071
:1006B000012907D05FF0000194F814C0BCF1010FCC
:1006C00002D00AE03946F7E7F3B1A36A43F020030A
:1006D000A362E36A43F00103E3622368D3F804C032
:1006E0002CF4694C4CEA010CC3F804C021688B68F7
:1006F000DFF870C003EA0C0313438B60A168B942B2
:100700000BD0012909D00CE0DFF85CC0A3690CEB29
:1007100043330B4343F40061DFE7218A0D05A5F560
:1007200080152168CB6A23F470032B43CB622168C8
:1007300089680E4B1940914208D1E662A16A21F006
:10074000020141F00101A162BDE8F081A06A20F040
:10075000020040F01000A062E06A40F00100E06298
:100760000120F1E7FDF7E1FF00E0FFFFFE0E1FFFB4
:1007700010B586B0002100910191029103911A4CAD
:1007800003681A4903221A48A34211D18B6943F422
:1007900000738B618B6903F4007304938B6943F0DE
:1007A00008038B61896901F008010491022113E0BB
:1007B000104CA34215D18B6943F480638B618B6924
:1007C00003F4806304938B6943F008038B618969A8
:1007D00001F0080104910121CDE90012694600F001
:1007E00035F906B010BD00000024014000100240A1
:1007F000000C0140002801402DE9F84300270D4678
:100800000446009700F01CFA804620688168C905FC
:1008100008D5A06A40F02000A06284F8247001206E
:10082000BDE8F8834168C90503D4C06A10F4700FAD
:100830002AD0022000F094FA3B490968B1FBF0F697
:100840002068036939490B424FEA61014FEAA1125E
:100850001FD1C3684FEA611C13EA0C0F19D1036959
:100860000B4225D1C068104222D1142023E0681C1D
:100870000AD02DB100F0E4F9A0EB0800A84203D99A
:1008800020680068800725D5206800688007EED5BD
:100890002DE003690B4202D1C168114206D0026902
:1008A00023490A4206D1C068084203D1542002E01D
:1008B000292000E0FC204643009816E0681C11D077
:1008C0002DB100F0BDF9A0EB0800A8420AD90098AC
:1008D000B04207D2A06A40F00400A06284F82470FD
:1008E00003209DE70098401C0090B042E6D32168A9
:1008F0006FF012000860A06A40F40070A0622068E7
:100900008068C0F3424007280CD1207B50B9A06A10
:1009100020F48070A062A06AC00403D4A06A40F0F2
:100920000100A06200207BE70C00002024499224F3
:100930004992240070B5044690F8240001280DD097
:10094000012084F824002046FFF7FAFC02004FF053
:10095000000005D084F82400104670BD022070BD50
:10096000A16A40F20123994341F48071A1621F4DB5
:1009700023681F49AB4218D10E6816F4702F14D0AB
:10098000A66A46F48016A6620E68760505D5A66AA4
:1009900026F4005646F48056A662A66AF6040AD5E6
:1009A000E66A26F00606E66206E0A66A26F48016E7
:1009B000A6625E68E9E7E06284F824006FF0020056
:1009C000186020688368C3F34243072B05D1A8420F
:1009D00008D1096811F4702F04D0816841F48011A6
:1009E0008160B9E7816841F4A001F9E7002801407E
:1009F0000424014010B5044690F82400012807D0D3
:100A0000012084F824002046FFF76EFC10B107E0B7
:100A1000022010BDA16A21F4885141F00101A162B8
:100A2000002184F8241010BD70B5044600F008F9C8
:100A30000546601C02D004480078044400F000F928
:100A4000401BA042FAD370BD000000202DE9F84FF2
:100A5000DFF8B8910024A9F1040B23460F2709F110
:100A6000040AABF1040EC9E00125A5402A40AA42C0
:100A70007DD1674ED1F804C0ACEB0608B44532D046
:100A800014DCBCF1030F3AD009DCBCF1000F2AD012
:100A9000BCF1010F1CD0BCF1020F31D11DE0BCF143
:100AA000110F17D0BCF1120F2AD119E0B8F5881F29
:100AB00019D006DCB8F5803F15D0B8F5801F1FD1DE
:100AC00011E0B8F5001F0ED0B8F5041F18D10AE0E8
:100AD000CB6815E0CB681B1D12E0CB6808330FE034
:100AE000CB680C330CE08B682BB1012B4FF0080363
:100AF00003D0456104E0042302E0056100E0002327
:100B0000FF2A01D8064601E000F104064FEA8405F9
:100B100001D9A5F12005D6F8008007FA05FC28EADE
:100B20000C0803FA05F548EA0508C6F800804D6888
:100B3000ED0062D5374DAE6946F00106AE61AD6994
:100B400024F0030605F001050095334D06EB050C76
:100B5000DCF80850A607360F07FA06F825EA08055C
:100B6000DFF8B880404503D14FF0000817E044E0BB
:100B7000DFF8AC80404502D14FF001080FE0DFF80C
:100B8000A480404502D14FF0020808E0DFF89880C9
:100B9000404502D14FF0030801E04FF0040808FA85
:100BA00006F848EA0508CCF808804D68D9F80060D6
:100BB000ED024D4601D5164300E096432E604D6888
:100BC000DAF80060AD02554601D5164300E09643C1
:100BD0002E604D68DBF80060AD035D4601D516431D
:100BE00000E096432E604D68DEF80060ED03754628
:100BF00001D5164300E096432E60641C0D682A461A
:100C0000E5407FF431AFBDE8F88F000008040140F3
:100C100000001110001002400000014000080140D7
:100C2000000C0140001001400014014080680840A1
:100C300000D0012070470AB1016170470904FBE749
:100C40000148806870470000000000200248816869
:100C5000027811448160704700000020074810B5F9
:100C6000016841F010010160032000F067F80F20D7
:100C700000F006F800F024F8002010BD002002402B
:100C800070B50D4D04464FF47A712878B1FBF0F041
:100C90000A490968B1FBF0F000F096FB48B9102C46
:100CA00007D200222146501E00F028F800206C6078
:100CB00070BD012070BD0000000000200C0000206D
:100CC0000C4808B5816941F001018161816901F039
:100CD00001010091C16941F08051C161C06900F01A
:100CE000805000900448416821F0E06141F00071BB
:100CF000416008BD0010024000000140F0B40E4BFE
:100D00001B680C46C3F30223C3F10705042D00D969
:100D10000425191D072901D2002300E0DB1E01264E
:100D200006FA05F1491E214099409E40761E164064
:100D30003143F0BC00F047BF0CED00E0064900F085
:100D4000070208684FF6FF03184040EA0220034AF2
:100D500010430860704700000CED00E00000FA0549
:100D600010B501460020234C012922D0022939D098
:100D700010291DD161682268D20119D51E48C1F31E
:100D80008342C903805C0AD561681B4AC1F34041B4
:100D9000921E515C194AB2FBF1F1484301E0184937
:100DA00048436168490203D440000321B0FBF1F0DD
:100DB00010BD226AC2F30121012903D1920701D596
:100DC000C80310BD022905D1626A920702D549F60F
:100DD000404010BD0329FCD121688903F9D54FF2A9
:100DE000244010BD00F02AF96168C1F38131491C2B
:100DF0004900DBE7001002408026000800127A005C
:100E000000093D002DE9F84305460078354CC00740
:100E100054D0E0690026C00008D4E06940F080505A
:100E2000E061E069012600F0805000902E480168E2
:100E3000C90512D40168804641F480710160FFF752
:100E4000FFFE074605E000BFFFF7FAFEC01B64285F
:100E500023D8D8F80000C005F6D5206A10F44070F9
:100E600021D0A98801F4407181421CD0206A1F4919
:100E7000012220F440700A6000220A602062C0074C
:100E800011D0FFF7DDFE074641F2883808E000BFC9
:100E9000FFF7D6FEC11B414502D90320BDE8F88308
:100EA000206A8007F4D5206A696820F440700843FE
:100EB00020621EB1E06920F08050E0612878800750
:100EC00005D56068A96820F4404008436060287830
:100ED000C00605D56068E96820F4800008436060BA
:100EE0000020DBE700100240007000404004424256
:100EF0002DE9F0470F46050061D0434E306800F001
:100F00000700B84209D2306820F00700384330604B
:100F1000306800F00700B84251D128683B4C810787
:100F200012D5400703D5606840F4E060606028781F
:100F3000000703D5606840F4605060606068A9688D
:100F400020F0F000084360602878C00728D0686867
:100F5000012810D02168022810D0890700292EDA34
:100F6000616821F0030101436160FFF769FE80467B
:100F700041F288390DE021688903EFE78901EDE747
:100F8000FFF75EFEA0EB0801494502D90320BDE84A
:100F9000F0876068696800F00C00B0EB810FEFD15A
:100FA000306800F00700B8420BD9306820F0070025
:100FB00038433060306800F00700B84201D00120AB
:100FC000E5E72878400705D56068E96820F4E06027
:100FD000084360602878000706D56068296920F416
:100FE000605040EAC100606000F038F86168084A6B
:100FF000C1F30311515CC840064908600648006807
:10100000FFF73EFE0020C2E7002002400010024031
:10101000902600080C000020040000200448054928
:1010200000684968044AC1F30221515CC840704716
:101030000C00002000100240A026000804480549CA
:1010400000684968044AC1F3C221515CC840704736
:101050000C00002000100240A02600080E4A516833
:101060000E4801F00C03042B11D0082B0FD10C48B3
:10107000C1F38343C903C05C0AD55168084AC1F370
:101080004041921E515C054A5043B0FBF1F070475D
:1010900004494843704700000010024000127A00E3
:1010A0006E26000800093D002DE9F84F040070D0BD
:1010B0002078C04DC00749D06868C0F3810001287E
:1010C00007D06868C0F38100022809D16868C003AE
:1010D00006D52868800339D560680028E7D035E058
:1010E0006068B0F5803F0BD010B1B0F5A02F11D0E3
:1010F000286820F480302860286820F4802002E0EE
:10110000286840F480302860606890B1FFF798FD4F
:1011100006460AE0286840F480202860F0E700BF17
:10112000FFF78EFD801B642873D828688003F7D5ED
:101130000CE0FFF785FD064605E000BFFFF780FDE8
:10114000801B6428F0D828688003F7D420789A4E52
:1011500080074FF001094FF0000839D5686810F09A
:101160000C0F07D06868C0F38100022809D16868B5
:10117000C00306D42868800714D52069012808D147
:1011800010E02069B0B1C6F80090FFF759FD07469E
:1011900005E00AE1FFF754FDC01B0228C4D8286807
:1011A0008007F7D52868616920F0F80040EAC1009F
:1011B00028600DE0C6F80080FFF742FD074604E016
:1011C000FFF73EFDC01B022823D828688007F7D40C
:1011D000207800072CD57948A169D9B1C0F80090D2
:1011E000FFF72EFD074604E0FFF72AFDC01B02288B
:1011F0000FD8686A8007F7D571484FF4FA51006834
:10120000B0FBF1F0009000BF0098411E0091FAD2AF
:101210000EE080E0C0F80080FFF712FD074604E012
:10122000FFF70EFDC01B022875D8686A8007F7D447
:101230002078400760D5E8690027C00008D4E86935
:1012400040F08050E861E869012700F0805000908C
:101250005C480168C90513D40168834641F4807174
:101260000160FFF7EDFC824606E000BFFFF7E8FCF7
:10127000A0EB0A0064284ED8DBF80000C005F5D5C5
:10128000E06801280AD008B1052813D0286A20F0A8
:1012900001002862286A20F0040002E0286A40F079
:1012A00001002862E06841F2883B98B1FFF7C8FC72
:1012B00082460BE0286A40F004002862EEE700BF97
:1012C000FFF7BEFCA0EB0A0159455AD8286A8007EF
:1012D000F6D50CE0FFF7B4FC824605E0FFF7B0FC62
:1012E000A0EB0A0159454CD8286A8007F6D41FB1F3
:1012F000E86920F08050E861E06988B36968C1F36B
:101300008101022944D00228C6F8608004D0FFF78A
:1013100097FC044638E034E0FFF792FC074604E00F
:10132000FFF78EFCC01B02282BD828688001F7D459
:10133000206AB0F5803F05D16868A16820F40030CC
:1013400008436860D4E908010843696821F474110E
:1013500008436860C6F86090FFF772FC044606E038
:1013600025E000BFFFF76CFC001B022809D82868A5
:101370008001F7D51BE000BFFFF762FC001B0228CD
:1013800002D90320BDE8F88F28688001F4D40EE06C
:101390000128F7D06868226A00F48031914204D1B4
:1013A000616A00F47010884201D00120EAE7002051
:1013B000E8E7000000100240000042428004424280
:1013C0000C0000200070004010B5401EB0F1807F7E
:1013D00001D3012010BD4FF0E02460610F216017A0
:1013E00000F0F1FB0020A06107202061002010BD6B
:1013F00070B5040004D094F84100002510B106E057
:10140000012070BD84F84050204600F023F82420CD
:1014100084F841002068C16821F40051C160204671
:1014200000F074FB2068016921F49041016120689B
:10143000416921F02A0141612068C16841F40051ED
:10144000C1606564202084F8410084F8420065632F
:10145000002070BD30B585B0002400940194029442
:10146000039400681449884223D11448C16941F4A7
:101470000031C161C16901F400310491816941F019
:101480000401816180690E4D00F004000490042085
:101490000090022001900320039069462846FFF740
:1014A000D5FA0820CDE90004694628460294FFF7E2
:1014B000CDFA05B030BD00000044004000100240ED
:1014C00000080140FEE700003EB5002411480094EA
:1014D000019402940E49846001600473047501252F
:1014E00005614FF460214460C161FFF7B3F808B1B2
:1014F000FFF72BF80920CDE900056946029405485D
:10150000FFF726F8002801D0FFF71FF83EBD0000C6
:1015100000240140100000203EB500241148009432
:10152000019402940E4984600160047304750125DE
:1015300005614FF460214460C161FFF78BF808B189
:10154000FFF703F80820CDE9000569460294054835
:10155000FEF7FEFF002801D0FEF7F7FF3EBD0000BA
:1015600000280140400000202DE9F04186B0002015
:1015700000900190029003902948816941F0100188
:101580008161816901F010010491816941F02001BC
:101590008161816901F020010491816941F00401B8
:1015A0008161816901F004010491816941F00801C0
:1015B000816180691B4E00F008004FF46044049084
:1015C000012221463046FFF736FB174F0122032147
:1015D0003846FFF730FBDFF85480012220214046D7
:1015E000FFF729FB00940124032569463046019446
:1015F000CDE90245FFF72AFACDE90054694638469D
:10160000CDE90245FFF722FA2020CDE90004694622
:101610004046CDE90245FFF719FA06B0BDE8F08172
:10162000001002400010014000080140000C014081
:101630000C4810B50A4901604FF4E13141600021C6
:1016400081600C22C160C0E904128161C161FFF7B1
:10165000CFFE002803D0BDE81040FEF776BF10BDD6
:101660000044004070000020FEE7FEE730B4002197
:10167000084B0A465FF0000003EBC004401CC0B2F8
:1016800062548028F8D3491CC9B20829F2D330BC6F
:1016900000F0CAB8B800002030B1012807D10021FD
:1016A0005FF0A70000F0AEB90021A620FAE770476E
:1016B00010B558B1012810D10021C02000F0A2F9C6
:1016C0000021A020BDE8104000F09CB90021C820F6
:1016D00000F098F90021A120F4E710BD30B5CC0846
:1016E00001F0070301259D40EBB2064D05EBC00557
:1016F000C808285C0AB1184302E063EA0000C0434E
:10170000285530BDB800002070B5424D4FF400544C
:10171000002221462846FFF78EFAC820FFF784F9F9
:10172000012221462846FFF786FA0021AE2000F06C
:1017300069F90021084600F065F90021102000F049
:1017400061F90021402000F05DF90021812000F0C6
:1017500059F90021CF2000F055F90021A12000F017
:1017600051F90021C82000F04DF90021A62000F019
:1017700049F90021A82000F045F900213F2000F0A0
:1017800041F90021D32000F03DF90021084600F086
:1017900039F90021D52000F035F90021802000F032
:1017A00031F90021D92000F02DF90021F12000F0BD
:1017B00029F90021DA2000F025F90021122000F09B
:1017C00021F90021DB2000F01DF90021402000F06C
:1017D00019F90021202000F015F90021022000F065
:1017E00011F900218D2000F00DF90021142000F0E6
:1017F00009F90021A42000F005F90021A62000F03D
:1018000001F9FFF733FFBDE870400021AF2000F081
:10181000F9B80000000801400246012000E05043F2
:10182000491EC9B2FBD2704770B5114E002400BFEB
:1018300004F1B000C0B2002100F0E4F80021084635
:1018400000F0E0F80021102000F0DCF85FF0000567
:1018500006EBC5000121005D00F0D4F86D1CEDB26F
:10186000802DF5D3641CE4B2082CE1D370BD0000D8
:10187000B80000202DE9FC4F1C460E4682468B46E0
:101880000190082B0DD0600700D0012000EBD400A0
:1018900061084843C0B28146203AD0B2009000208F
:1018A0004BE00620F7E7082C13D00C2C18D0102C96
:1018B0001BD0182C44D10098234900EBC00000BF76
:1018C00001EB8001002711F80850E80712D00B9AAD
:1018D00013E000981D4900EB400001EB4001F1E7E7
:1018E00000981B4900EB4000EAE71A49009801EB19
:1018F0000011E7E70B9828B3002231465046FFF766
:10190000EDFE761C7F1C6D08FFB2F6B2082FDCD30B
:101910000AF1010000F0FF0A082C0AD00199AAEB95
:101920000100B0EB540F04D10BF108008A4600F01F
:10193000FF0B08F101005E46C0B280464845B2D3B5
:10194000BDE8FC8F0122D8E734330008A826000840
:10195000D0280008442D00082DE9F84F0025DDE9C6
:101960000A691F4692468B468046082E00D1022502
:1019700000241CE0381B401EC1B20A20FFF74CFFB8
:10198000BAFBF0F00A21B0FBF1F201FB1200CDF836
:10199000009080B13030C2B205EB560101FB0480EB
:1019A000C0B233465946FFF765FF641CE4B2BC423F
:1019B000E0D3BDE8F88F05EB560101FB0480C0B20F
:1019C00033463022EEE72DE9F8411E46154688469B
:1019D0000446079F0BE03346414620460097FFF739
:1019E00049FF082E0AD004EB5600C4B26D1C2A78B9
:1019F000A2F120005E28EED9BDE8F881A41DE4B272
:101A0000F4E700002DE9F0471D4C054609B101221D
:101A100000E0002201212046FFF70DF900220221FB
:101A2000A0462046FFF707F9164F00244FF400495F
:101A30004FF48046002231463846FFF7FCF828066E
:101A400001D5012200E0002249463846FFF7F3F8AD
:101A5000012231463846FFF7EEF86806641C050E91
:101A6000E4B2082CE6D30122022144464046FFF7A7
:101A7000E2F82046BDE8F04701221146FFF7DBB847
:101A8000000801400010014070477047FFF7DEB8C2
:101A900030B593B028216846FEF796FB14210AA8BA
:101AA000FEF792FB002501200F951095119501047A
:101AB00012958DE8230004904FF4E010CDE9081052
:101AC000022407946846FFF7EFFA08B172B6FEE702
:101AD0000AA90F2081E831004FF48060CDE90D059F
:101AE00002210AA8FFF704FA08B172B6FEE74FF424
:101AF000004011900F940FA8FFF784F9002801D03F
:101B000072B6FEE713B030BD7047000070B50446F2
:101B100000680169E26821F44051114301612169C3
:101B2000A0680843616908432168CA6841F20C63F0
:101B30009A430243CA6020684169A26921F4407156
:101B4000114341611E492068884202D1FFF776FAAD
:101B500001E0FFF763FA00EBC00101EB00126068DF
:101B600064218000B2FBF0F3B3FBF1F36FF01806D1
:101B70007343B2FBF0F5B2FBF0F605EB83053223BD
:101B800003EB0515B5FBF1F5B6FBF1F605F0F00535
:101B900005EB0615B2FBF0F6B2FBF0F0B0FBF1F08E
:101BA0006FF01802504306EB800003EB0010B0FB0F
:101BB000F1F0216800F00F002844886070BD00003B
:101BC00000380140FEE70907090E002804DB00F198
:101BD000E02080F80014704700F00F0000F1E020D2
:101BE00080F8141D7047002100E0491CB1EBC00FC4
:101BF000FBD370471CB5FFF731F8FFF749FFFFF73C
:101C0000B3FCFFF715FDFFF75FFCFFF785FCFFF75F
:101C10007BFD0020FFF740FD0020FFF749FDFFF7A7
:101C200025FD01240021102355A208460094FFF74A
:101C3000CAFE102355A2142100200094FFF7C3FE12
:101C4000102354A2282100200094FFF7BCFEFFF7C8
:101C5000EBFDDFF844811025DFF84091DFF840B15B
:101C60000A264FF0663A00BFFEF712FBCDE900549A
:101C70000246042300215820FFF76EFEFEF79FFB6B
:101C8000404507D9102347A2142130200094FFF7C4
:101C90009AFE39E0494600F0ADFB00F043FB07B285
:101CA000002F4FF01003009407DA2D22142130206A
:101CB000FFF7E0FD784207B204E020221421302033
:101CC000FFF7D8FD97FBF6F2CDE90054022314216B
:101CD0003820FFF741FE10232E22142148200094C3
:101CE000FFF7C8FD97FBF6F006FB1072CDE9005434
:101CF000012314215020FFF72FFE1023432214212B
:101D000058200094FFF7B6FDFEF7D8FA00F05EFB0E
:101D100000F0D6FA52465B4600F0D4F90022224B7E
:101D200000F078F80022214B00F0CCF900F040F8E8
:101D3000494600F05FFB00F011FB87B2B7FBF6F2FB
:101D4000CDE90054012328212020FFF705FE28219A
:101D500010232E2208460094FFF78CFDB7FBF6F007
:101D600006FB1072CDE90054012328213020FFF733
:101D7000F3FDFFF759FD4FF47A70FEF755FE73E758
:101D80005475726269646974793A000054656D70C3
:101D90003A00000050483A000000C8C2000020414C
:101DA00066660A404572720000FEAF4000001440B3
:101DB00021F00042A2F16052B2F5801F01F0004311
:101DC00028BFD2F17F6C0BD95FEA001C43EAC20244
:101DD00042EB507018BF704728BF20F001007047D9
:101DE000B2F5801FBCBF184670474FEA410C1CF586
:101DF000001F02D2084600F0C4BB70B500F00CFA18
:101E000000000089FFF7F6BF4FF00040A0F580000A
:101E1000704700002DE9C04130B4DFF8A0C23CEAB1
:101E2000111418BF3CEA131400F0EC8081EA03059A
:101E30001CEA111444EAD57418BF1CEA131500F00B
:101E4000C780A4EB05044FF0004545EAC12145EAEF
:101E5000C32341EA505143EA525304F17F7499423B
:101E600004F500344FEAC0204FEAC22208BF904276
:101E700000F09C804FEA13650FF24016765D4FEA42
:101E8000134506FB05F7C7F1807706FB07F74FEA16
:101E9000D737A7FB03687642C8F58038A7FB06CE84
:101EA00038BFA8F1010807FB08E64FF0000EA6FBBB
:101EB000028CE6FB03CEDCF1000CCEF1004E38BF05
:101EC000AEF1010EA6FB0C584FF000074FF00005D5
:101ED000E6FB0E87A1FB08C6A0FB07CE16EB0E069D
:101EE00045F10005E1FB076515F1E04E7EBFA4F565
:101EF00080345FEA46066D4116F1800745F1000522
:101F00004FEA17274FEA066647EA0567A6F1DE465D
:101F1000B6F1805F4FEA15251FD9384624F0010C31
:101F200005EBC471BCF1FE6F01EB0C1102D8F0BCE3
:101F3000BDE8008124425CBF01F5801E9EEAC47F9B
:101F400002D4F0BCBDE80081244238D4F0BCA1F139
:101F5000C041BDE8004100F0ADB94FEAD22242EAEB
:101F600043524FEAD323A7FB02864FEAD02040EA30
:101F7000415007FB03661EEA0E0F4FEAD12105FB15
:101F8000026658BFA6EB0056B6EB00564FEA520E5B
:101F90004EEAC37E18EB0E0E56EB530EBDD518EB72
:101FA00002085E417F1C55F10005B6E74FF480152D
:101FB0004FF000074FF000064FF00008ADE7F0BC0F
:101FC0004FF0000001F1C04101F00041BDE8008187
:101FD00011EA0C1F0CEA131500D00CE013EA0C1FD9
:101FE00000F025804FF00000F0BC81EA030101F011
:101FF0000041BDE80081F0BCBDE8004181EA030179
:1020000000F058B9F0BCBDE8004170B500F004F92B
:10201000097EFC3E00F007B881EA03014FF00000A2
:1020200001F00041704781EA030100F043B9F0BCC0
:10203000BDE800414FF0000021497047FFFDFBF96A
:10204000F7F5F4F2F0EEEDEBE9E8E6E4E3E1E0DEEB
:10205000DDDBDAD8D7D5D4D3D1D0CFCDCCCBCAC85D
:10206000C7C6C5C4C2C1C0BFBEBDBCBBBAB9B8B784
:10207000B6B5B4B3B2B1B0AFAEADACABAAA9A8A877
:10208000A7A6A5A4A3A3A2A1A09F9F9E9D9C9C9B45
:102090009A999998979796959594939392919190F0
:1020A0008F8F8E8E8D8C8C8B8B8A89898888878781
:1020B0008685858484838382828181800000FF07F6
:1020C0000000F87FDFF848C170B51CEA111E1EBF82
:1020D0001CEA13159EEA0C0F95EA0C0F00F06F80B6
:1020E00081EA030423EA4C134EEAD47E21EA4C1120
:1020F00041F4801143F48013AE44A1FB024CA0FBD9
:102100000365AEF17F7E361955EB0C05A1FB034C40
:102110004CF10003A0FB021C16EB0C06654153F1C9
:102120000003094218BF46F0010613F4007F0BD1EB
:102130004FEA03314FEA0530340341EA155140EAD2
:1021400016506FF003020AE04FEAC3214FEAC520A0
:10215000F40241EA555140EA56506FF0020202EB98
:102160002E4201EB025585EACE710AD05FEA440C9B
:1021700018BF24F0004450F1000041F1000120EAB2
:10218000D47040F2FE7C624500D270BDA84214BFFC
:102190004FF080444FF04044002E08BF0024BEF1B1
:1021A000806FA8BFA1F1C041BDE8704080F282807D
:1021B0004FF0000001F1C04101F0004170479EEA7C
:1021C0000C0F0CEA131518BF95EA0C0F06D04FF050
:1021D000000081EA030E0EF0004170BD00F01CF813
:1021E0008900013E00F007B800F009B84FEA430C3F
:1021F0005FEA5C5C08D081EA030100F05BB84FEA5B
:10220000410C5FEA5C5CF6D14FF000000149704779
:102210000000FF070000F87F0EF1020E2EF0030E03
:102220005EF8046B364205D4012A43EB030515F52D
:10223000001F12D8012841EB010C1CF5001F0CD81F
:102240000ED14FEAD17C15F5001F0CEB4C0C0CF1B4
:10225000020C08BF4CEBD37C04E04FF0080C01E00B
:102260004FEAD37C0CEB4C0526FA05F606F0070680
:10227000B6F1040C06D20EEB860CBDE870404CF0B3
:10228000010C6047DFE80CF0090B02024FF000413F
:102290004FF00000A1F5002170BD1946104601283D
:1022A00051EB010418BFD4F5001484BF002001F0E5
:1022B000004170BD0808A0F500114FEA31017047D8
:1022C00043004FEAD30C4FEA3C0C43401FBF40078A
:1022D0000CF1605113F0FE4F70471CF0006F03D1FA
:1022E00000200CF0004170470CF0004343EA5070AE
:1022F00010B540EACC0000F0FEF800BF00000092EC
:102300004FEA0001FFF7D6BF4FF000414FF0000049
:10231000A1F5002170470000014800F037B900BF67
:102320000000C07F41000B0ED3F19E0208D950F48B
:1023300000034FEA032323FA02F048BF40427047EC
:1023400010B500F0D8F800BF4992248000207047F3
:102350006FF0004282EA200070470000C10DD1F109
:102360009E0206DB4FEA002343F0004323FA02F00B
:102370007047004207D54FEA4001B1F1FE4F02D24B
:102380004FF00000704710B500F0B5F84992248076
:10239000002070476FEA20007047000010F00041F5
:1023A00048BF4042B0FA80F310FA03F2C3F19D0334
:1023B0000BD051EAC35101EB1220530638BF7047CE
:1023C00000F1010008BF20F001007047B0FA80F36F
:1023D00010FA03F2C3F19D030AD0D90501EB1220D4
:1023E000530638BF704700F1010008BF20F001001C
:1023F000704700004FF47F0C1CEAD0121EBF1CEA8D
:10240000D11392EA0C0F93EA0C0F00F0478090EA88
:10241000010F48BF42F480724FF0004C4CEA00209C
:102420004CEA012102EB0302A0FB0113A2F500021A
:10243000002918BF43F001035B0028BF4FEA3303B4
:1024400042EB22425FEA132C4CEBC2502EBFBCEB96
:10245000436FB2F57C0F70474FEA036CBCF1004F3D
:1024600008BF20F00100B2F57C0F38BF70470BD5D4
:1024700082F0FF0212F5803FC8BF704700F1C040F4
:10248000D8BF00F00040704700F5000C5FEA4C0C2C
:1024900048BF7047B0F1C04000F073B890EA010F38
:1024A0000CEAD11348BF42F48072624538BF6345DD
:1024B00004D280EA010000F00040704710B500F03F
:1024C0001AF800BF8900013E00F007B800F009B813
:1024D0005FEA410C5FEA1C6C08D080EA010000F062
:1024E00050B85FEA400C5FEA1C6CF6D14FF0004038
:1024F000A0F5800070470EF1020E2EF0030E5EF87C
:10250000044B244204D44FEA4102B2F17F4F11D868
:102510004FEA4003B3F17F4F0CD80ED14FEAD07C85
:10252000B2F17F4F0CEB4C0C0CF1020C08BF4CEBE2
:10253000D17C04E04FF0080C01E04FEAD17C0CEBB9
:102540004C0324FA03F404F00704B4F1040C06D29B
:102550000EEB840CBDE810404CF0010C6047DFE846
:102560000CF0070802024FF00040A0F5800010BDFB
:102570000846420018BFD2F1807288BF00F00040C8
:1025800010BDFF2141EAD050C00570470CF00F0389
:10259000092B08BF082000F051800A2B0BD0082B14
:1025A00018BF704708BF1CF0400F0AD04FF0000062
:1025B0004FF0000170471CF0400F18BF4FF0004073
:1025C00070471CF0100F08D020F0704300F07F42DD
:1025D00042EAD3014FEA4370704700F0604021F0B7
:1025E0007F4242EA000201F07F4040EA7270704789
:1025F0004FF0FF0212EAD0521CBF92F0FF038B4251
:10260000C2BFD14200EBC1507047002A0AD0002B54
:102610000BD0002900F00040A4BF40F0FE4040F481
:102620000000704700F00040704743024FF00B0C71
:1026300018BF4CF0806C7FF46FAE70471CF4801FA5
:1026400011D01CF4E02F03D06FEACC314900704761
:102650004FF04050EFF3008222F0704242EA000255
:1026600082F3008870474FF00000704701020203B8
:102670000405060708090A0B0C0D0E0F10100102C5
:1026800002030405060708090A0B0C0D0E0F1010B3
:102690000000000000000000010203040607080912
:1026A0000000000001020304000000000000000020
:1026B000002F000000000700070000147F147F14A3
:1026C00000242A7F2A120062640813230036495529
:1026D000225000000503000000001C224100000001
:1026E00041221C000014083E08140008083E080897
:1026F000000000A0600000080808080800006060F2
:102700000000002010080402003E5149453E000030
:10271000427F4000004261514946002141454B3112
:10272000001814127F10002745454539003C4A49DE
:102730004930000171090503003649494936000650
:102740004949291E000036360000000056360000B8
:102750000008142241000014141414140000412233
:10276000140800020151090600324959513E007C0B
:102770001211127C007F49494936003E41414122F5
:10278000007F4141221C007F49494941007F0909DE
:102790000901003E4149497A007F0808087F00008E
:1027A000417F4100002040413F01007F0814224149
:1027B000007F40404040007F020C027F007F040801
:1027C000107F003E4141413E007F09090906003E5D
:1027D0004151215E007F0919294600464949493186
:1027E0000001017F0101003F4040403F001F2040A9
:1027F000201F003F4038403F006314081463000767
:102800000870080700615149454300007F414100BD
:1028100000552A552A55000041417F00000402015D
:10282000020400404040404000000102040000203B
:1028300054545478007F4844443800384444442079
:1028400000384444487F00385454541800087E0926
:1028500001020018A4A4A47C007F080404780000EE
:10286000447D4000004080847D00007F10284400AB
:102870000000417F4000007C04180478007C0804BC
:10288000047800384444443800FC242424180018F8
:10289000242418FC007C08040408004854545420E4
:1028A00000043F444020003C4040207C001C20406D
:1028B000201C003C4030403C004428102844001CB0
:1028C000A0A0A07C004464544C44141414141414A8
:1028D0000000000000000000000000000000FC00FC
:1028E0000000000002000000000C020C02000000CA
:1028F0000000000090D0BCD0BC900003000300009A
:102900001824FE448C000302070201001824D8B0EA
:102910004C80000300010201C038E438E0000102ED
:102920000201020208060000000000000000000092
:10293000000000F80402000000010204000204F894
:1029400000000004020100009060F86090000000A8
:10295000010000002020FC202000000001000000F9
:1029600000000000000008060000000020202020D9
:102970002000000000000000000000000000000235
:10298000000000000080601C020004030000000042
:10299000F8040404F8000102020201000008FC002F
:1029A00000000002030200001884442418000302FF
:1029B0000202020008042424D800010202020100DD
:1029C00040B088FC80000000000302003C24242466
:1029D000C400010202020100F824242CC0000102FC
:1029E000020201000C04E41C0400000003000000CB
:1029F000D8242424D80001020202010038444444AF
:102A0000F8000003020201000000100000000000B6
:102A1000020000000000200000000000060000008E
:102A20000020508804020000000001029090909065
:102A30009000000000000000000204885020000206
:102A4000010000001804C424180000000200000067
:102A5000F804E494F80001020202020000E09CF095
:102A6000800002030000030204FC2424D8000203B7
:102A700002020100F80404040C0001020202010039
:102A800004FC0404F80002030202010004FC2474A4
:102A90000C0002030202030004FC24740C00020375
:102AA00002000000F0080444CC40000102020100D2
:102AB00004FC2020FC040203000003020404FC04C4
:102AC0000400020203020200000404FC04040604E1
:102AD0000403000004FC24D00C04020302000302DF
:102AE00004FC04000000020302020203FC3CC03CA0
:102AF000FC0003000300030004FC30C4FC040203D8
:102B000002000300F8040404F800010202020100BC
:102B100004FC24241800020302000000F88484044A
:102B2000F80001020207050004FC24649800020377
:102B300002000302182424448C0003020202010054
:102B40000C04FC040C0000020302000004FC000062
:102B5000FC04000102020100047C80E01C0400006F
:102B6000030000001CE03CE01C0000030003000028
:102B7000049C609C0400020300030200041CE01C8F
:102B800004000002030200000C84641C0400020321
:102B9000020203000000FE0202000000070404001D
:102BA000000E30C00000000000010200000202FE22
:102BB00000000004040700000004020400000000FC
:102BC00000000000000000000000080808080808D5
:102BD0000000020000000000000000000040A0A073
:102BE000C00000010202030204FC2020C000000318
:102BF0000202010000C02020600000010202020069
:102C000000C02024FC0000010202030200C0A0A0BA
:102C1000C0000001020202000020F8242404000287
:102C2000030202000040A0A0602000070A0A0A0474
:102C300004FC2020C0000203020003020020E40084
:102C40000000000203020000000020E40000080869
:102C50000807000004FC80E02020020302000302B9
:102C60000404FC000000020203020200E020E02055
:102C7000C00003000300030020E02020C000020386
:102C80000200030200C02020C00000010202010077
:102C900020E02020C000080F0A02010000C0202010
:102CA000E0000001020A0F0820E04020200002039B
:102CB000020000000060A0A0200000020202030049
:102CC0000020F820000000000102020020E00020A7
:102CD000E00000010202030220E0208060200000EA
:102CE000030100006080E08060000003000300003A
:102CF00020608060200002030003020020E02080AA
:102D000060200808070100000020A06020000002E9
:102D100003020200000020DE0200000000070400A1
:102D2000000000FF00000000000F00000002DE2095
:102D30000000000407000000020102040402000079
:102D40000000000000000000000000000000000083
:102D500000000000000000F8000000000000003348
:102D60003000000000100C06100C060000000000EF
:102D70000000000040C07840C0784000043F0404D8
:102D80003F040400007088FC08300000001820FF99
:102D9000211E0000F008F000E018000000211C03D4
:102DA0001E211E0000F00888700000001E21232450
:102DB0001927211010160E0000000000000000006E
:102DC00000000000000000E01804020000000007FE
:102DD0001820400000020418E00000000040201805
:102DE00007000000404080F0804040000202010FD8
:102DF00001020200000000F0000000000101011FBC
:102E000001010100000000000000000080B070001F
:102E100000000000000000000000000000010101AF
:102E2000010101010000000000000000003030003E
:102E30000000000000000000806018040060180618
:102E40000100000000E010080810E000000F102052
:102E500020100F00001010F8000000000020203F9C
:102E60002020000000700808088870000030282426
:102E700022213000003008888848300000182020C7
:102E800020110E000000C02010F8000000070424EC
:102E9000243F240000F80888880808000019212031
:102EA00020110E0000E0108888180000000F11208B
:102EB00020110E0000380808C83808000000003F44
:102EC000000000000070880808887000001C2221A3
:102ED00021221C0000E010080810E0000000312250
:102EE00022110F00000000C0C000000000000030F0
:102EF0003000000000000080000000000000806042
:102F000000000000000080402010080000010204C2
:102F100008102000404040404040400004040404A9
:102F20000404040000081020408000000020100865
:102F300004020100007048080808F000000000309A
:102F400036010000C030C828E810E0000718272428
:102F500023140B000000C038E0000000203C2302D6
:102F60000227382008F8888888700000203F202039
:102F700020110E00C030080808083800071820206B
:102F80002010080008F808080810E000203F202062
:102F900020100F0008F88888E8081000203F202043
:102FA0002320180008F88888E8081000203F200037
:102FB00003000000C030080808380000071820206F
:102FC000221E020008F808000008F808203F21012E
:102FD00001213F20000808F8080800000020203FD9
:102FE0002020000000000808F8080800C080808049
:102FF0007F00000008F888C028180800203F200142
:103000002638200008F8080000000000203F20209B
:103010002020300008F8F800F8F80800203F003FB2
:10302000003F200008F830C00008F808203F2000CA
:1030300007183F00E01008080810E0000F102020DB
:1030400020100F0008F808080808F000203F2101B0
:1030500001010000E01008080810E0000F18242407
:1030600038504F0008F8888888887000203F20007A
:10307000030C302000708808080838000038202130
:1030800021221C00180808F8080818000000203F3A
:103090002000000008F808000008F808001F2020A1
:1030A00020201F000878880000C838080000073872
:1030B0000E010000F80800F80008F800033C0700C3
:1030C000073C0300081868808068180820302C032B
:1030D000032C30200838C800C83808000000203F02
:1030E0002000000010080808C838080020382621F1
:1030F00020201800000000FE020202000000007FF5
:1031000040404000000C30C0000000000000000102
:103110000638C00000020202FE00000000404040ED
:103120007F00000000000402020204000000000012
:10313000000000000000000000000000808080808F
:103140008080808000020204000000000000000077
:103150000000000000008080808000000019242210
:1031600022223F2008F8008080000000003F11204C
:1031700020110E000000008080800000000E112051
:1031800020201100000000808088F800000E11202F
:1031900020103F200000808080800000001F22223D
:1031A00022221300008080F0888888180020203FA9
:1031B000202000000000808080808000006B9494BC
:1031C0009493600008F8008080800000203F210078
:1031D00000203F2000809898000000000020203F41
:1031E00020200000000000809898000000C080802F
:1031F000807F000008F8000080808000203F2402CB
:103200002D302000000808F8000000000020203FBA
:10321000202000008080808080808000203F20006F
:103220003F20003F8080008080800000203F210000
:1032300000203F200000808080800000001F2020B0
:1032400020201F00808000808000000080FFA120DF
:1032500020110E000000008080808000000E1120F0
:1032600020A0FF80808080008080800020203F217F
:103270002000010000008080808080000033242432
:1032800024241900008080E0808000000000001FDE
:10329000202000008080000000808000001F20208F
:1032A00020103F20808080000080808000010E3050
:1032B0000806010080800080008080800F300C03B1
:1032C0000C300F0000808000808080000020312EB4
:1032D0000E312000808080000080808080818E7090
:1032E0001806010000808080808080000021302C42
:1032F0002221300000000000807C0202000000005B
:10330000003F404000000000FF00000000000000FF
:10331000FF0000000002027C800000000040403FEF
:103320000000000000060101020204040000000089
:10333000000000000000000000000000000000008D
:10334000000000000000000000000000000000007D
:1033500000000000000000000000000000F0F0F09D
:10336000000000000000000000017F0100000000DC
:1033700000000000001C1C1C000000000000806019
:10338000301C8C60301C0C000000000000000000AD
:10339000000000000000000000000000000000002D
:1033A000000000E00000000000E000000086E69F52
:1033B00086868686E69F860000011F0101010101C5
:1033C0001F010100000080C06020F820E0C0000064
:1033D000000003070C18FF70E18100000000070FD8
:1033E00010107F100F070000806020608000000038
:1033F000E02000000F3020309F70DC371030C0001C
:103400000000100E03000718101807000000C0206D
:1034100020E0C0000000000080E01F38E88703C4FF
:103420003C040000070F1810100B070D10100800C7
:1034300000808C4C380000000000000000000000FC
:10344000000000000000000000000000000000007C
:103450000000000000000000000080E030080400D0
:103460000000000000FEFF0100000000000000005E
:103470000000030F1820400000040830E080000026
:10348000000000000000000001FFFE00000000003E
:10349000004020180F0300000000000000000000A2
:1034A0000000C00000000000004266663C18FF18E3
:1034B0003C666642000000000000030000000000BF
:1034C000000000000000800000000000001010104C
:1034D0001010FF101010101000000000000003007A
:1034E00000000000000000000000000000000000DC
:1034F00000000000000000000000000000808C4C74
:103500003800000000000000000000000000000083
:10351000000000000010101010101010101010000B
:10352000000000000000000000000000000000009B
:10353000000000000000000000000000000000008B
:103540000000000000001C1C1C0000000000000027
:103550000000000000000000E0380C000000000047
:1035600080701C03000000000060380E01000000A5
:1035700000000000000080C060202060C0800000CB
:1035800000FEFF010000000001FFFE000001070E29
:10359000181010180E0701000000808080C0E000A5
:1035A000000000000000000000FFFF00000000001D
:1035B00000001010101F1F1010100000008040208D
:1035C00020202060C08000000003030080402038DD
:1035D0001F070000001C1A1918181818181F0000DF
:1035E0000080C020202060C0800000000003030095
:1035F0001010182FE780000000070F10101010188F
:103600000F070000000000000000C0E0F000000014
:1036100000C0B088868180FFFF808000000000002D
:103620000010101F1F1010000000E060606060605C
:103630006060000000003F1008080818F0E000007B
:1036400000070B101010101C0F030000000080C0BA
:1036500040202020E0C0000000FCFF2110080808E6
:1036600018F0E0000001070C18101010080F0300FC
:103670000000C0E06060606060E060000000030087
:103680000000E0180700000000000000001F1F00FD
:10369000000000000080C0602020202060C080006A
:1036A0000087EF2C1818303068CF830000070F0810
:1036B00010101010180F07000000C0C0202020209C
:1036C000C0800000001F3F604040402010FFFE000F
:1036D00000000C1C101010080F0300000000000078
:1036E000000000000000000000000000000E0E0EB0
:1036F0000000000000000000001C1C1C0000000076
:1037000000000000000000000000000000000000B9
:10371000000C0C0000000000000000000058380001
:1037200000000000000000000000008040201000A9
:10373000000010284482010000000000000000008A
:10374000000001020408100000000000000000005A
:103750000000000000848484848484848484840041
:103760000000000000000000000000000000102029
:103770004080000000000000000000000000018206
:10378000442810000000100804020100000000009E
:1037900000C020201010101030E0C0000003030013
:1037A00000F010080C070300000000001C1C1C00A7
:1037B00000000000000000C0406020202040C00049
:1037C00000FCFF01F00E03C1FE03807F0001070E25
:1037D00008111110110904020000000080E0E0004F
:1037E000000000000000807C4340477FF88000001C
:1037F00010181F1000000000131F1C1020E0E02014
:1038000020202060C080000000FFFF101010101862
:103810002FE78000101F1F1010101010180F070046
:10382000000080C0402020202060E00000FCFF015C
:1038300000000000000001000001070E1810101029
:103840000804030020E0E02020202040C080000089
:1038500000FFFF000000000001FFFE00101F1F100E
:10386000101018080E07010020E0E0202020202082
:103870002060800000FFFF101010107C000000008E
:10388000101F1F10101010101018060020E0E0206C
:10389000202020206060800000FFFF101010107CAE
:1038A00000000100101F1F100000000000000000B9
:1038B000000080C06020202040E0000000FCFF01EC
:1038C00000004040C0C140400001070E1810101019
:1038D0000F0F000020E0E0200000000020E0E020CA
:1038E00000FFFF101010101010FFFF00101F1F101E
:1038F00000000000101F1F100000202020E0E0202A
:10390000202000000000000000FFFF000000000079
:1039100000001010101F1F10101000000000000009
:10392000202020E0E020202000000000000000FF18
:10393000FF0000000060E0808080C07F3F0000004A
:1039400020E0E020000020A06020200000FFFF30E9
:10395000187CE3C000000000101F1F1000000113BE
:103960001F1C181020E0E0200000000000000000F4
:1039700000FFFF000000000000000000101F1F10EB
:10398000101010101018060020E0E0E00000000009
:10399000E0E0E02000FF013FFEC0E01E01FFFF006D
:1039A000101F1000031F0300101F1F1020E0E0C0B5
:1039B000000000000020E02000FF0003071C78E06A
:1039C0008000FF00101F100000000000030F1F0008
:1039D000000080C060202060C080000000FEFF0169
:1039E0000000000000FFFE000001070E1810101874
:1039F0000C07010020E0E0202020202060C0800093
:103A000000FFFF2020202020301F0F00101F1F105C
:103A10000000000000000000000080C06020206066
:103A2000C080000000FEFF010000000000FFFE005B
:103A30000001070E1111133C7C67210020E0E020FB
:103A40002020202060C0800000FFFF101030F0D048
:103A5000080F0700101F1F10000000030F1C10109C
:103A60000080C060202020204040E00000070F0CB4
:103A70001818303060E08100001F0C081010101082
:103A8000180F07008060202020E0E02020206080C8
:103A90000100000000FFFF00000000010000000026
:103AA000101F1F100000000020E0E02000000000B8
:103AB0000020E02000FFFF00000000000000FF00E9
:103AC00000070F1810101010100807002060E0E029
:103AD0002000000020E060200000077FF8800080C8
:103AE0007C03000000000000071F1C07000000000E
:103AF00020E0E02000E0E0200020E0200007FFF8C8
:103B0000E01FFFFCE01F00000000031F0300011F77
:103B100003000000002060E0A0000020E060200022
:103B2000000000038F7CF8C6010000000010181E82
:103B3000130001171F1810002060E0E020000000B3
:103B400020E06020000001073EF8E01807000000B8
:103B500000000010101F1F101000000000806020E7
:103B6000202020A0E0E0200000000000C0F03E0F78
:103B70000300000000101C1F171010101018060082
:103B80000000000000FC0404040404000000000025
:103B900000FF00000000000000000000007F404027
:103BA00040404000000010E0000000000000000065
:103BB00000000000031C6080000000000000000006
:103BC000000000030C70800000000404040404FCE6
:103BD0000000000000000000000000FF00000000E6
:103BE000000040404040407F000000000000001006
:103BF000080C040C08100000000000000000000089
:103C000000000000000000000000000000000000B4
:103C100000000000000000000000000000000000A4
:103C20000000000000000000808080808080808094
:103C3000808080800000000404080800000000006C
:103C40000000000000000000000000000000000074
:103C50000000000000000000000000000000000064
:103C600000000000000098D844642424FCF8000000
:103C7000000F1F18101010081F1F10180020E0F070
:103C800000000000000000000000FFFF180804040E
:103C90000CF8F00000001F0F18101010180F030090
:103CA00000000000000000000000000000E0F81824
:103CB0000404043C3800000000030F0C1010101026
:103CC000080600000000000000000020E0F00000F6
:103CD00000E0F81C04040408FFFF000000030F18B4
:103CE000101010081F0F0800000000000000000066
:103CF000000000000000E0F8484444444C787000A4
:103D00000000030F0C181010100804000000000041
:103D100080C0602020E0C00000040404FFFF040411
:103D200004040000000010101F1F101010000000FD
:103D3000000000000000000000000000000070F81B
:103D40008C04048CF874040C007076CF8D8D8D89F2
:103D5000C87870000020E0F00000000000000000C3
:103D60000000FFFF08040404FCF8000000101F1FFF
:103D7000100000101F1F1000000000000060600015
:103D8000000000000000040404FCFC00000000002F
:103D900000001010101F1F10101000000000000085
:103DA000000000606000000000000000040404FC4B
:103DB000FC0000000000C0C08080C07F3F00000009
:103DC0000020E0F000000000000000000000FFFF05
:103DD00080C0F41C0404000000101F1F1100031F0A
:103DE0001C1010000000202020E0F0000000000067
:103DF0000000000000FFFF000000000000001010A5
:103E0000101F1F1010100000000000000000000034
:103E10000000000004FCFC0804FCFC0804FCFC009E
:103E2000101F1F10001F1F10001F1F100000000098
:103E300000000000000000000004FCFC080804046E
:103E4000FCF8000000101F1F100000101F1F1000C2
:103E500000000000000000000000000000E0F0187A
:103E60000C04040C18F0E00000030F0C10101010EC
:103E70000C0F030000000000000000000000000024
:103E80000004FCFC080404040CF8F0000080FFFFB0
:103E9000889010101C0F03000000000000000000BC
:103EA0000000000000E0F81C04040408F8FC000016
:103EB00000030F1810109088FFFF80000000000022
:103EC0000000000000000000040404FCFC100804D2
:103ED000040C0C001010101F1F1010100000000028
:103EE000000000000000000000000000000030782A
:103EF000CCC48484840C1C0000001E181010101107
:103F0000190F06000000000000C0000000000000C3
:103F100000040404FFFF040404000000000000008B
:103F20000F1F1010100C0000000000000000000027
:103F3000000000000004FCFE00000004FCFE000085
:103F400000000F1F181010081F0F080000000000CD
:103F5000000000000000000000040C3CFCC4000055
:103F6000C43C0C0400000000010F1E0E0100000004
:103F7000000000000000000000000000043CFCC441
:103F800000E47CFC84807C040000071F070000071D
:103F90001F070000000000000000000000000000FB
:103FA0000004041C7CE4C0341C0404000010101C39
:103FB0001601131F1C181000000000000000000074
:103FC0000000000000040C3CFCC400C43C040400DD
:103FD0000000C080C1370E0100000000000000009A
:103FE000000000000000000000001C0404C4F47C79
:103FF0001C0400000000101C1F17111010180E00E8
:1040000000000000000000F80C04000000000000A8
:10401000001028EF00000000000000000000003F3A
:1040200060400000000000000000FF0000000000F1
:10403000000000000000FF00000000000000000081
:104040000000FF00000000000000040CF800000069
:104050000000000000000000EF2810000000000039
:10406000000040603F000000000000000018060251
:1040700002040810202030080000000000000000AA
:104080000000000000000000000000000000000030
:104090000000F010101010FF10101010F0000000C1
:1040A00000000F04040404FF040404040F000000D3
:1040B0004040405F555555755555555F404040004F
:1040C0000040200F094989790909090F20400000A3
:1040D00000FE02424ACA4A4ACA4A4A4202FE000056
:1040E00000FF40504C4340404F50505C40FF0000A8
:1040F0000000F888888888FF88888888F800000091
:1041000000001F080808087F888888889F80F000C2
:1041100080828282828282E2A2928A86828080006B
:10412000000000000040807F000000000000000050
:10413000101010FF109008888888FF888888080071
:104140000444827F01808040432C102846818000F7
:104150000010101010D030FF30D0121C10100000D2
:1041600010080402010000FF000001020408100012
:1041700004040484E43C2724242424E404040400E8
:1041800004020100FF0909090949897F00000000B4
:1041900000FE225A8600FE9292929292FE00000049
:1041A00000FF04080700FF4020030C1422414000D8
:1041B0000080402018068000071820408000000082
:1041C00001002070282621202024386000010100F1
:1041D000001012929292929292121202FE0000002D
:1041E0000000003F101010103F0040807F000000D2
:1041F000000000C080808080808080FC848080807F
:10420000808080C0C0000000000000FF7F40404070
:10421000404040FF40404040404040FF7F000000A1
:1042200000000000000000000000007F700000009F
:10423000000000000000000000000000000000007E
:1042400000000000000000FCF8000000000000007A
:10425000000000000000000000000000FFFE02025D
:1042600002020202020202FFFF0202020202020234
:104270000202FF0300000000000000001F1F0404F2
:1042800004040404040404FFFF04040404040404F8
:1042900004041F00000000000000000000000000F7
:1042A000000000000000007F3F0000000000000050
:1042B00000000000000000000000000000000000FE
:1042C00000000000000000000000000000000000EE
:1042D0000000000000F8F8F0F0702000000000007E
:1042E00000000000000000000000000000000000CE
:1042F00000000000000000000000000000000000BE
:10430000800000000000000000000000000000002D
:104310000000000000FFFFFFFF00000000000000A1
:10432000000000000000000000000000808000008D
:10433000000000000000000000000000000000007D
:1043400000FFFFFE06060606060606060606060629
:104350000606060606FFFFFFFF0606060606060619
:104360000606060606060606060606FFFFFFFF0708
:10437000020000000000000000000000000000003B
:1043800000FFFFFF00000000000000000000000030
:104390000000000000FFFFFFFF0000000000000021
:1043A0000000000000000000000000FFFFFFFF0011
:1043B00000000000000000000000000000000000FD
:1043C00000FFFFFF181818181818181818181818D0
:1043D0001818181818FFFFFFFF18181818181818C1
:1043E0001818181818181818181818FFFFFFFF00C9
:1043F00000000000000000000000000000000000BD
:1044000002010100000000000000000000000000A8
:104410000000000000FFFFFFFF00000000000000A0
:10442000000000000000000000000001010000008A
:10443000000000000000000000000000000000007C
:10444000000000000000000000000000000000006C
:104450000000000000FFFFFFFF0000000000000060
:10446000000000000000000000000000000000004C
:10447000000000000000000000000000000000003C
:10448000000000000000000000000000000000002C
:1044900000000000001F1F0F0F00000000000000C0
:1044A000000000000000000000000000000000000C
:1044B0000000000000000000D844000800000020B8
:1044C0001000000028010008E84400081000002047
:1044D000880B0000440100080100000010000000EB
:0844E0000000000000127A0048
:04000005080000ED02
:00000001FF
